:020000040800F2
:100000000015002029020008B71A0008411900084D
:10001000B51A00081F04000829210008000000008C
:10002000000000000000000000000000BB1A0008F3
:10003000D104000800000000B91A0008BD1A000829
:10004000430200084302000843020008430200087C
:10005000430200084302000843020008430200086C
:10006000430200084302000843020008430200085C
:10007000430200084302000843020008430200084C
:10008000210400084302000843020008430200085C
:10009000430200084302000843020008430200082C
:1000A000430200084302000843020008430200081C
:1000B000430200084302000843020008430200080C
:1000C00043020008430200084302000843020008FC
:1000D00043020008430200084302000843020008EC
:1000E00043020008430200084302000843020008DC
:1000F00043020008430200084302000843020008CC
:1001000043020008430200084302000843020008BB
:1001100043020008430200084302000843020008AB
:10012000430200084302000843020008430200089B
:10013000430200084302000843020008430200088B
:10014000430200084302000843020008430200087B
:10015000430200084302000843020008430200086B
:10016000430200084302000843020008430200085B
:100170004302000843020008430200080000000098
:10018000430200084302000800F002F800F03CF8C7
:100190000AA090E8000C82448344AAF10107DA45E2
:1001A00001D100F031F8AFF2090EBAE80F0013F0F8
:1001B000010F18BFFB1A43F001031847942E0000EB
:1001C000B42E0000103A24BF78C878C1FAD852077C
:1001D00024BF30C830C144BF04680C6070470000C1
:1001E0000023002400250026103A28BF78C1FBD840
:1001F000520728BF30C148BF0B6070471FB502F0DF
:10020000BEFE1FBD10B510BD00F0CFF81146FFF7C0
:10021000F5FF02F0C5F900F0EDF803B4FFF7F2FFC7
:1002200003BC00F0F5F80000094880470948004782
:10023000FEE7FEE7FEE7FEE7FEE7FEE7FEE7FEE796
:10024000FEE7FEE704480549054A064B70470000F3
:10025000551B000889010008000F00200015002030
:10026000001100200011002053EA020C00F0698008
:100270002DE9F04B4FF00006002B1FBFB3FA83F5BA
:1002800003FA05F424FA05F65E4012BF1643B2FAEB
:1002900082F502FA05F4C5F120051EBF22FA05FC1D
:1002A00044EA0C04203556EA044C4FEA144418BFC3
:1002B000641C4FF000084FF00009904271EB030CF2
:1002C00039D3002919BFB1FA81F701FA07F6B0FA5C
:1002D00080F700FA07F6C7F120071EBF20FA07FCD7
:1002E00046EA0C062037B6FBF4FCA7EB0507103FE7
:1002F00007F01F0BCBF120060CFA0BFB2CFA06F6CD
:1003000044BFB3460026202FA4BF5E464FF0000B2B
:100310005BEA060C08BF4FF0010B19EB0B09ABFBB6
:10032000027C48EB0608C01B06FB02CC0BFB03CC8F
:1003300071EB0C01C1E70B46024641464846BDE859
:10034000F08B13B54FF000004FF00001AFF30080C9
:10035000BDE81C4070474FF0000200B513469446BC
:100360009646203922BFA0E80C50A0E80C50B1F10D
:100370002001BFF4F7AF090728BFA0E80C5048BF21
:100380000CC05DF804EB890028BF40F8042B08BFBF
:10039000704748BF20F8022B11F0804F18BF00F8BB
:1003A000012B7047704770477047754600F02CF876
:1003B000AE4605006946534620F00700854618B052
:1003C00020B5FFF73FFFBDE820404FF000064FF09B
:1003D00000074FF000084FF0000B21F00701AC467A
:1003E000ACE8C009ACE8C009ACE8C009ACE8C00999
:1003F0008D46704710B50446AFF300802046BDE837
:100400001040FFF70ABF000000487047A00E002010
:1004100001491820ABBEFEE7260002007047FEE748
:10042000014800F059B80000400E00200168182370
:10043000CAB2103AB2FBF3F2054B6FF30901032A7B
:100440009B5CC36500D9091D8165084670470000A3
:10045000922F000810B5014600208B698A6A4FF080
:10046000C07453B1B3F5005F15D072B1012A0CD03E
:10047000022A0AD0032A09D104E01AB1012A06D0BF
:10048000022A03D1C96AC90100D5012010BDC96A79
:10049000A142FAD010BD002AF7D0012AF2D0022AD8
:1004A000F3D0032AF3D010BD30B50468256825F4D5
:1004B00080252560046863608368402B036803D04F
:1004C00099600068C26030BD9A600068C16030BD4C
:1004D000704772B6FEE700002DE9F84304464FF07E
:1004E0000009CDF8009063484FF41651A56D0068DF
:1004F000B0FBF1F72E6894F85C10082000FA01F1C7
:1005000031420FD021680A6852070BD50A6822F0E1
:1005100004020A6094F85C108840A860606D40F0A6
:100520000100606594F85C104FF0010808FA01F0D2
:10053000304208D021684969090604D5A860606D79
:1005400040F00200606594F85C100420884030425E
:1005500008D021680968890704D5A860606D40F05B
:100560000400606594F85C1010208840304218D078
:1005700021680968090714D5A86020680168490343
:1005800004D50068000308D5A16C07E00168C9051F
:1005900003D4016821F008010160216C09B12046F3
:1005A000884794F85C1020208840304231D0216880
:1005B0000968C9062DD5A86094F83500052820687B
:1005C000016806D0490347D5006800031DD4616C5B
:1005D0001CE021F0160101602068416921F08001D2
:1005E0004161206C08B9A06C20B12068016821F03D
:1005F0000801016094F85C103F208840A86084F8EE
:10060000358084F83490216D1FE0E16B09B12046FC
:100610008847606D00282BD0606DC00714D005207E
:1006200084F835002068016821F00101016000981C
:10063000401C0090B84203D820680068C007F6D17B
:1006400084F8358084F83490E16C002910D001B032
:100650002046BDE8F04308470168C905D5D40168C4
:1006600021F01001016084F8358084F83490CCE7E3
:10067000BDE8F883400000202DE9F041044600F079
:10068000A3F906465CB1022084F83500002584F801
:1006900034502068016821F0010101600DE0012063
:1006A000BDE8F08100F090F9801B052805D92020D5
:1006B0006065032084F83500F2E720680068C00711
:1006C000F0D12268116820480140D4E901031843A1
:1006D000D4E903363343184363691843A3691843C5
:1006E000E3691843236A18430843616A042903D164
:1006F000D4E90B1319430843106020684069666A07
:1007000020F0070130460E43012704280CD1A06ACF
:100710000643E06A40B12046FFF79CFE20B140202E
:10072000606584F83570BAE7206846612046FFF7B7
:100730007DFE94F85C203F2191408160656584F8DE
:1007400035700020ACE700003F8010F02DE9F0414B
:100750000446866D90F83400002501280DD0012054
:1007600084F8340094F835700020012F07D084F805
:10077000340002252846BDE8F0810220FBE702276D
:1007800084F8357060652046FFF78EFE94F85C10A3
:100790003F208840B0602068016841F01601016088
:1007A000206C20B12068016841F0080101602068D8
:1007B000016841F001010160DCE700002DE9F84F1C
:1007C000DFF8BCA10022012503264FF00F090AF132
:1007D000040BAAF1040E00BF0B6805FA02F42340D3
:1007E000A34270D10F7907F00307012F01D0022F28
:1007F00016D187684FEA420806FA08FC27EA0C0778
:10080000D1F80CC00CFA08FC4CEA070CC0F808C080
:100810004768A7430C79C4F3001494403C434460F8
:100820000C79E443A4070AD0C4684FEA420C06FAE4
:100830000CF7BC438F6807FA0CF72743C7600C79A5
:1008400004F00304022C12D1D40800EB840CDCF871
:1008500020405707FF0E09FA07F824EA0804D1F8E8
:10086000108008FA07F848EA0408CCF820800468E9
:100870004FEA420C06FA0CF7BC430F7907F0030766
:1008800007FA0CF7274307604C6814F4403F70D018
:100890003C4C276847F480472760246822F0030710
:1008A00004F480440094384C07EB040CDCF808484E
:1008B00097074FEA177809FA08F7BC43334FB84255
:1008C00002D1002724E054E0314FB84201D1012782
:1008D0001EE0304FB84201D1022719E02E4FB84236
:1008E00001D1032714E02D4FB84201D104270FE0B6
:1008F0002B4FB84201D105270AE02A4FB84201D157
:10090000062705E0284FB84201D1072700E0082755
:1009100007FA08F72743CCF80878DAF8004057467A
:10092000D1F804C09C435FEACC2C00D51C433C604A
:10093000DBF800405F46D1F804C09C435FEA8C2C92
:1009400000D51C433C60DEF800407746D1F804C077
:100950009C435FEA8C3C00D51C433C60084F083F39
:100960003C68D1F804C09C435FEACC3C00D51C43F2
:100970003C60521C102AFFF42FAFBDE8F88F000036
:10098000083C014044380240003001400000024071
:100990000004024000080240000C02400010024027
:1009A0000014024000180240001C0240426921EA83
:1009B00002030A4043EA0241816170470AB1816142
:1009C00070470904FBE70000014880687047000099
:1009D0003400002002488168027811448160704729
:1009E000340000200B4810B5016841F4007101602B
:1009F000016841F480610160016841F48071016027
:100A0000032000F06FF80F2000F006F800F024F843
:100A1000002010BD003C024070B50D4D04464FF45F
:100A20007A712878B1FBF0F00A490968B1FBF0F05F
:100A300000F00CFB48B9102C07D200222146501EB2
:100A400000F030F800206C6070BD012070BD000027
:100A500034000020400000200A4808B5016841F435
:100A600080410160006800F4804000900548001F4C
:100A7000016841F080510160006800F080500090F2
:100A800008BD000044380240002809DB00F01F02C6
:100A9000012191404009800000F1E020C0F80011E0
:100AA00070470000F0B40E4B1B680C46C3F30223E2
:100AB000C3F10705042D00D90425191D072901D20A
:100AC000002300E0DB1E012606FA05F1491E214045
:100AD00099409E40761E16403143F0BC01F03DBB6C
:100AE0000CED00E0064900F0070208684FF6FF032E
:100AF000184040EA0220034A104308607047000093
:100B00000CED00E00000FA052DE9F0470E46050067
:100B100065D0DFF81481D8F80000F7B200F00700C4
:100B2000B04207D288F80070D8F8000000F0070043
:100B3000B04254D128683D4C810712D5400703D5F7
:100B4000206840F4E05020602878000703D5206832
:100B500040F4604020602068A96820F0F00008435D
:100B600020602878C0072DD03049686808390128EE
:100B700012D0022813D0032811D009688907002950
:100B80002DDA216821F0030101432160FFF71CFFEA
:100B9000814641F2883A0EE009688903EFE7096867
:100BA0008901ECE7FFF710FFA0EB0901514502D9DD
:100BB0000320BDE8F0872068696800F00C00B0EB06
:100BC000810FEFD1D8F80010404601F00701B14283
:100BD00007D90770006800F00700B04201D001207B
:100BE000E7E72878400705D52068E96820F4E05059
:100BF000084320602878000706D52068296920F47A
:100C0000604040EAC100206000F038F82168084ADE
:100C1000C1F30311515CC8400649086006480068EA
:100C2000FFF7FAFE0020C4E7003C0240083802400B
:100C30009A2F000840000020380000200448054991
:100C400000680968044AC1F38221515CC8407047BA
:100C50004000002008380240AA2F00080448054937
:100C600000680968044AC1F34231515CC8407047CA
:100C70004000002008380240AA2F0008154810B58F
:100C8000006810F00C02144813D01449042A0FD045
:100C9000082A0ED10F4C241F2268236802F03F025D
:100CA0005B0207D52068C0F38810A0FB010106E0B5
:100CB000084610BD2168C1F38811A1FB0001002383
:100CC000FFF7D2FA2168C1F30141491C4900B0FB8A
:100CD000F1F010BD083802400024F40040787D0196
:100CE0002DE9F84F04006ED02078DFF84C93C00750
:100CF000A9F104054AD009F104000168C1F381019A
:100D0000012908D00068C0F3810002280AD1D9F86F
:100D10000000400206D52868800337D560680028A7
:100D2000E1D033E06068B0F5803F10D0B0F5A02F7F
:100D3000286810D020F480302860286820F48020B3
:100D400028606068A8B1FFF73FFE06460DE02868FE
:100D500040F48030F4E740F480202860F7E700BFDB
:100D6000FFF732FE801B642873D828688003F7D50C
:100D70000CE0FFF729FE064605E000BFFFF724FE62
:100D8000801B6428F0D828688003F7D42078DFF827
:100D9000AC8280074FF0000A3ED5A748001D0168CD
:100DA00011F00C0F08D00068C0F3810002280BD1AD
:100DB000D9F80000400207D42868800716D5E068FB
:100DC000012800D112E033E1E068B8B10120C8F891
:100DD0000000FFF7F9FD064605E000BFFFF7F4FD50
:100DE000801B0228C0D828688007F7D528682169A9
:100DF00020F0F80040EAC10028600DE0C8F800A02B
:100E0000FFF7E2FD064604E0FFF7DEFD801B022847
:100E10001FD828688007F7D42078000722D5864F8E
:100E200087486169703771B101210160FFF7CCFD1E
:100E3000064604E0FFF7C8FD801B022809D8386881
:100E40008007F7D50EE0C0F800A0FFF7BDFD06460D
:100E500005E082E0FFF7B8FD801B02287DD83868E6
:100E60008007F7D42078400768D5DFF8CCB1002799
:100E70000BF13C0BDBF80000C0000BD4DBF80010DA
:100E800041F08051CBF80010DBF80000012700F0A2
:100E9000805000906B4E3068C00510D4306840F42C
:100EA00080703060FFF790FD009005E0FFF78CFD4B
:100EB0000099401A022850D83068C005F6D55E4E19
:100EC000A0686C3601280FD00528306810D020F0BB
:100ED00001003060306820F004003060A068B8B1D4
:100EE000FFF772FD00900FE0306840F00100F4E77A
:100EF00040F004003060F7E7FFF766FD0099411A03
:100F000041F28830814266D830688007F4D50EE01F
:100F1000FFF75AFD009007E0FFF756FD0099411AD0
:100F200041F28830814256D830688007F4D42FB11E
:100F3000DBF8001021F08051CBF80010A069C8B395
:100F40003D49091D0968C1F3810102294AD00228DF
:100F5000504607D0C8F8600000E03CE0FFF734FDE1
:100F600004463BE04746C8F86000FFF72DFD064603
:100F700005E000BFFFF728FD801B02282BD828685A
:100F80008001F7D4D4E907010843A16A2E4A490831
:100F900002EB0141626A41EA8211084394F82C1085
:100FA00040EA0161C9F8001001203866FFF70CFD26
:100FB000044606E03EE000BFFFF706FD001B0228E6
:100FC00009D828688001F7D534E000BFFFF7FCFCA2
:100FD000001B022802D90320BDE8F88F2868800191
:100FE000F4D427E00128F7D0D9F80000E26900F432
:100FF000800191421CD1226A00F03F01914217D139
:1010000047F6C071626A0140B1EB821F10D1A26A3B
:101010004FF0FF3300F4403103EB5202B1EB024FCB
:1010200006D194F82C1000F07060B0EB016F01D085
:101030000120D1E70020CFE70438024000004742FA
:10104000800E4742007000400000FFFF10B5401EB8
:10105000B0F1807F01D3012010BD4FF0E02460612A
:101060000F21601701F079F80020A06107202061AE
:10107000002010BD10B590F83C20012A22D001229A
:1010800080F83C20CA688C6822F4407222434C6885
:1010900022F4806222430C6822F4006222430C692D
:1010A00022F4805222434C6922F400522243C9693F
:1010B000002322F480420A4301684A6480F83C30ED
:1010C000002010BD022010BD70B590F83C20012A10
:1010D00032D0012480F83C40022280F83D20036891
:1010E0005A689D6822F070060A6832435A60134BB2
:1010F00002689A4214D0B2F1804F11D0104B9A423C
:101100000ED0104B9A420BD00F4B9A4208D00F4B87
:101110009A4205D00E4B9A4202D00E4B9A4204D10D
:10112000496825F080031943916080F83D40002113
:1011300080F83C10084670BD022070BD00000140E0
:101140000004004000080040000C00400004014082
:10115000004001400018004010B5040003D094F88E
:101160003D0010B107E0012010BD002084F83C00D4
:10117000204600F01FF8022084F83D00211D206861
:1011800000F0F0FC012084F8460084F83E0084F86A
:101190003F0084F8400084F8410084F8420084F85D
:1011A000430084F8440084F8450084F83D000020A2
:1011B00010BD000008B500680649884208D10648FD
:1011C000016841F001010160006800F00100009039
:1011D00008BD0000000001404438024070B50446DC
:1011E00090F83C000025012817D0012684F83C60C7
:1011F000022084F83D002068826822F0770222F401
:101200007F4282600868502838D00DDC20284FD0FB
:1012100005DC90B3102811D14AE0022070BD3028BF
:1012200046D040280AD13BE060282FD070280DD04E
:10123000B0F5805F03D0B0F5005F12D0012584F8CF
:101240003D60002084F83C00284670BDCB68D1E9A1
:101250000121206800F0F7FC2068816841F07701E7
:1012600009E0CB68D1E90121206800F0ECFC20689E
:10127000816841F480418160E1E719E0CA6849680A
:10128000206800F0B5FD5021206806E0CA68496872
:10129000206800F0BEFD6021206800F0DEFCCEE793
:1012A000CA684968206800F0A3FD40212068F4E77F
:1012B000226801461046F0E710B586B004461421B6
:1012C0006846FFF748F80E492068884216D10D4855
:1012D0000021026842F010020260006800F0100075
:1012E00005904FF4007000900220CDE9010101202B
:1012F000CDE9031069460448FFF760FA06B010BD57
:1013000000000140303802400010024070B5044631
:1013100090F83C0000260D4601280FD0012084F8EB
:101320003C006AB1042A1DD0082A2FD00C2A3FD0D5
:101330000126002084F83C00304670BD022070BDBC
:10134000206800F093FC2068816941F00801816108
:101350002068816921F004018161206881692A691E
:10136000114311E0206800F0B1FC2068816941F46C
:10137000006181612068816921F480618161206858
:1013800081692A6941EA02218161D2E7206800F07F
:10139000D3FC2068C16941F00801C1612068C169BE
:1013A00021F00401C1612068C1692A69114311E07B
:1013B000206800F0F5FC2068C16941F40061C1615A
:1013C0002068C16921F48061C1612068C1692A690E
:1013D00041EA0221C161ACE710B5040003D094F8E2
:1013E0003D0010B107E0012010BD002084F83C0052
:1013F000204600F01EF8022084F83D00211D2068E0
:1014000000F0B0FB012084F8460084F83E0084F828
:101410003F0084F8400084F8410084F8420084F8DA
:10142000430084F8440084F8450084F83D0000201F
:1014300010BD704710B50446022249B104290ED0F0
:10144000082913D094F84100012816D0012010BDBE
:1014500094F83E000128F9D184F83E200FE094F87A
:101460003F000128F2D184F83F2008E094F84000C2
:101470000128EBD184F8402001E084F841200122CA
:10148000206800F0D3FB16492068164A884201D034
:10149000904203D1436C43F4004343642068884284
:1014A00013D0B0F1804F10D00F4988420DD00F49B2
:1014B00088420AD00E49884207D0904205D00D4993
:1014C000884202D00C49884204D1816801F00701AA
:1014D000062903D0016841F001010160002010BD20
:1014E00000000140000401400004004000080040EA
:1014F000000C004000400140001800407047704759
:1015000070B5040004D094F83D00002510B106E049
:10151000012070BD84F83C50204600F023F82420C0
:1015200084F83D002068C16821F40051C160204664
:1015300000F02AFD2068016921F4904101612068D2
:10154000416921F02A0141612068C16841F40051DC
:10155000C1602564202084F83D0084F83E0000200E
:1015600070BD000070B586B0064614216846FEF7CF
:10157000F2FE1F493068884237D11E4800250168B5
:1015800041F400310160006800F400300590194812
:101590001038016841F0010101600068694600F0FF
:1015A000010005900C2000900220CDE901050320E8
:1015B0000390072004901048FFF700F9104C0F48E3
:1015C00020604FF00060C4E901054014C4E90350F5
:1015D0006561A561E561256220466562FFF74CF80B
:1015E00008B1FEF776FFB463A66306B070BD0000D5
:1015F0000044004040380240000002408860024041
:10160000400E002090F83E30202B0ED159B152B13F
:1016100090F83C30012B08D0012380F83C300023A7
:10162000036300F037BD01207047022070470000BF
:101630002DE9F05FB54BB64D00212DED0A8BA5F1DC
:1016400078001A78C2EB0214465C01EBC407491C0F
:10165000EE557829F8DB521C1A7019469A461B7A07
:1016600091F8099091F803C04F790E798D799AF825
:1016700001200024F2B9015DA5291BD1011991F8BF
:101680000180B8F15A0F15D10D798B784A79CE784F
:10169000AD0043EAC20345EA46052B438AF807300A
:1016A00032B3012391F8069091F807C04F7A0E7A71
:1016B0008D7A0122641C782CDCDB8AF808308AF8E9
:1016C00009908AF803C08AF805708AF804608AF8DD
:1016D00006508AF801209AF80A509AF80B609AF896
:1016E0000270DAF8183054460021012A02D023E0B3
:1016F0000023D7E710F801C0BCF1A50F1CD100EB07
:10170000010C9CF80180B8F15A0F15D19CF80280A9
:10171000B8F1050F10D19CF804609CF805509CF8B6
:101720000370360448EA056346EA0726334305B1E9
:1017300001259CF806600127491C7829D5DBA57294
:10174000A361E672A770012F7DD1DFF8C0B194EDDF
:101750000A9AD4ED099A94ED088A94ED0B0AD4ED17
:10176000078A94ED0C1ADFF8ACA1002581460BF135
:101770000D0B19F8052049460AF80520AA2A72D14E
:1017800048194378552B6ED160490E310A705F4A73
:101790004B700C32817811705C49C6788BF8006010
:1017A000103102790A7042794A708A1C8379137069
:1017B000C37953700B1D077A1F70407A58700888E0
:1017C000400800EE100AF8EE400A9FED530A108818
:1017D000771E20EE808A400800EE900A18EE900AEC
:1017E000F8EE600A60EE809A00EE107A39EEC8BA20
:1017F000F8EEC00A8BEE200A30EE089A01F04EFB9C
:101800009FED46CB53EC1C2B01F054F941EC1A0B25
:1018100018EE900A01F042FB53EC1C2B01F048FA41
:101820009FED401B53EC112B01F044F953EC1A2BA4
:1018300000F0E8FF41EC100B00F0A2FC51EC100BA3
:1018400000F006FF00E056E000EE100A00212F4AEB
:10185000DFF8C0C039EE001A08461632F5EE000A6D
:101860000CF1500C17E036E005EB000808EB09031B
:10187000801C93F80A8082F80080DB7A537013880A
:1018800001EE903A0CEB8103491CF8EE611A61EE0F
:10189000A08AC3ED008AB0EB460FE5DB00210846C5
:1018A000224B16E000EE907A421E401CF8EEE00A51
:1018B000CBEE201A00EE902A03EB8102491CB8EE11
:1018C000E02AF0EE480A41EE820A30EE809A82ED7C
:1018D000009A8642E6DC6D1C782DFFF64AAF84ED57
:1018E0000A9AC4ED078A84ED088AC4ED099A84ED4A
:1018F0000B0A84ED0C1A06497822BDEC0A8B783964
:10190000A1F14400BDE8F05FFFF77CBE00000020BD
:1019100048010020B00200200000803C9A9999996B
:1019200099696340CDCCCCCCCCCC3540A00800200C
:101930004FF480510148FFF739B80000000C024015
:10194000FEE700002DE9F04186B014216846FEF75D
:1019500002FD23480024016841F001010160016893
:1019600001F001010591016841F010010160016879
:1019700001F010010591016841F002010160016868
:1019800001F002010591016841F008010160006861
:10199000144F00F008004FF48055059000222946AE
:1019A0003846FFF70BF8DFF840804FF4C0560022AE
:1019B00031464046FFF702F800950125CDE9015474
:1019C000694638460394FEF7F9FE0096CDE90154C6
:1019D000694640460394FEF7F1FE06B0BDE8F0818B
:1019E0003038024000040240000C024010B596B0AE
:1019F00000240F9410941194129413941C2108A89D
:101A00001494FEF7A8FC20216846FEF7A4FC2848A1
:101A100026490160A721C0E901146321C0E903142C
:101A200044618461FFF798FB08B172B6FEE74FF49A
:101A300080500F900FA91E48FFF7D0FB08B172B677
:101A4000FEE71B48FFF7C8FC08B172B6FEE7139427
:101A500013A917481494FFF737FB08B172B6FEE7D5
:101A60006020CDE908040A940B940C940D94002294
:101A700008A90F480E94FFF749FC08B172B6FEE7BB
:101A800000944FF40050CDE9044002940194039473
:101A9000694607480794FFF7EDFA08B172B6FEE70A
:101AA0000348FFF709FC16B010BD0000000001401C
:101AB00044000020FEE7FEE770477047FEF78ABF4C
:101AC00030B593B030216846FEF745FC14210CA8D0
:101AD000FEF741FC1D480025016841F0805101607E
:101AE000006800F0805011901948016841F480416D
:101AF00001600068022400F48040119001200390EE
:101B000010200490009406940820CDE90750A820E6
:101B1000CDE9090404200B906846FFF7E1F808B10D
:101B200072B6FEE70CA90F2081E831004FF4A050F7
:101B30000F904FF48050109005210CA8FEF7E4FFA1
:101B4000002801D072B6FEE713B030BD4038024025
:101B5000007000400248016841F470010160704764
:101B600088ED00E0F0B50268254C264D264E274F43
:101B7000274B4FF0804CA04209D0604507D0A842C7
:101B800005D0B04203D0B84201D0984204D122F02F
:101B9000700E4A6842EA0E02A0421BD0604519D07E
:101BA000A84217D0B04215D0B84213D0984211D0F5
:101BB000184DA8420ED0184DA8420BD0174DA84280
:101BC00008D0174DA84205D0164DA84202D0164D98
:101BD000A84203D122F44075CA682A434D6922F015
:101BE00080022A4302608A68C2620A688262A04256
:101BF00001D0984201D10969016301214161F0BD21
:101C0000000001400004004000080040000C0040BB
:101C100000040140004001400044014000480140F0
:101C200000180040001C00400020004010B501F0EA
:101C30001F030121046A99408C430462016A9A409F
:101C40001143016210BD10B5846842EA032224F4F6
:101C50007F440A432243826010BD826822F07002F2
:101C60000A4342F00701816070470000F0B5026A44
:101C700022F001020262036A42688469124E24F073
:101C800073050C682C4323F002058B682B430D4D24
:101C9000A84201D0B04205D123F00807CB683B43EE
:101CA00023F00403A84201D0B04205D14D6922F4CB
:101CB000407215438A692A434260846149684163DE
:101CC0000362F0BD0000014000040140F0B5026A6B
:101CD00022F010020262026A436884690D6824F4EB
:101CE000E64444EA05248D6822F0200242EA051207
:101CF0000F4D104EA84201D0B04206D1CF6822F05D
:101D0000800242EA071222F04002A84201D0B0420B
:101D100007D14D6923F4406343EA85038D6943EAA3
:101D2000850343608461496881630262F0BD0000FD
:101D30000000014000040140F0B5026A22F4807204
:101D40000262026A4368C46922F4007224F07305D7
:101D50000C68124E2C438D6842EA05220E4DA842B3
:101D600001D0B04206D1CF6822F4006242EA0722D5
:101D700022F48062A84201D0B04207D14D6923F419
:101D8000405343EA05138D6943EA05134360C46178
:101D90004968C1630262F0BD0000014000040140D7
:101DA00030B5026A22F480520262046A4268C36952
:101DB0000D6823F4E64343EA05238D6824F40054B8
:101DC00044EA0534084DA84202D0084DA84204D187
:101DD0004D6922F4804242EA85124260C36149683B
:101DE0000164046230BD00000000014000040140B5
:101DF00010B5036A046A24F001040462846924F0C3
:101E0000F00444EA021423F00A020A4384610262E5
:101E100010BD10B5036A23F0100303628369046ADE
:101E200023F4704343EA023224F0A00343EA011191
:101E30008261016210BD70B5846B2068406994F8BE
:101E40003D10C0F3C0100025212904D118B1E5844C
:101E5000204600F08AF82068406994F83E10C0F3EC
:101E60008010222904D118B1E585204600F056F8EB
:101E7000206C40F0100020642046FFF740FB70BD4E
:101E800010B50146806B09680968C9052FD4002187
:101E9000C18501680C3151E8002F22F4807241E8BD
:101EA0000023002BF5D10168143151E8002F22F0F6
:101EB000010241E80023002BF5D10168143151E8FB
:101EC000002F22F0400241E80023002BF5D1202111
:101ED00080F83E10016B012909D101680C3151E8ED
:101EE000002F22F0100241E80023002BF5D1016BF6
:101EF000012902D0FFF79CFB10BD818DFFF7FEFA90
:101F000010BD10B5806B016B012902D0FFF710FDE9
:101F100010BD818D4908FFF7F1FA10BD01680C3141
:101F200051E8002F22F4907241E80023002BF5D1F4
:101F30000168143151E8002F22F0010241E800232A
:101F4000002BF5D1016B012909D101680C3151E851
:101F5000002F22F0100241E80023002BF5D12021B0
:101F600080F83E1000210163704701680C3151E890
:101F7000002F22F0C00241E80023002BF5D12021E0
:101F800080F83D107047000070B504460068016994
:101F9000E26821F44051114301612169A068E269BE
:101FA00008436169114308432168CA6849F20C6318
:101FB0009A430243CA6020684169A26921F44071D2
:101FC0001143416131492068884202D0304988423A
:101FD00002D1FEF743FE01E0FEF730FEE269002386
:101FE000192164253226B2F5004F626828D0A0FB83
:101FF0000101930F9200FEF737F90146B0FBF5F0AF
:102000006FF01802504301EB800006EB0010B0FBAC
:10201000F5F000F0F002B1FBF5F002EB0012B1FBBD
:10202000F5F06FF01803584301EB800006EB001049
:10203000B0FBF5F000F00F0021681044886070BD1F
:10204000A0FB010192185B41FEF70EF90146B0FBBF
:10205000F5F00201B1FBF5F06FF01803584301EB06
:10206000800006EBC000B0FBF5F000F0F80002EBDA
:102070004002B1FBF5F0584301EB800006EBC000D5
:10208000B0FBF5F000F00700D6E7000000100140BB
:102090000014014038B5816282850025134604464C
:1020A0000564222084F83E00A26B1C48D063A26B1A
:1020B0001B481064A26B1B48D064A06B0A460565E0
:1020C0002168A06B091DFEF741FB2068016840688C
:1020D000009084F83C50206948B120680C3050E8EA
:1020E000001F41F4807140E80012002AF5D12068F9
:1020F000143050E8001F41F0010140E80012002AAE
:10210000F5D12068143050E8001F41F0400140E84C
:102110000012002AF5D1002038BD0000811E000801
:10212000031F0008371E0008FEE703B401984100B2
:10213000009850EAC12018BF04204A0D18BF40F093
:10214000010040F2FF72B2EB515F08BF40F00200A5
:10215000012808BF052002B070470907090E0028B2
:1021600004DB00F1E02080F80014704700F00F005D
:1021700000F1E02080F8141D70470000000000000E
:1021800070B59B482DED020B2DED068B079D25F0BC
:102190000044A04218DC9748844202DC0AD1069829
:1021A00040B19DED060BBDEC068B02B0BDE8704062
:1021B00000F0CEB9002DCCBF9FED8F0B9FED900BA3
:1021C000BDEC068B02B070BD8F48A04215DD8F4874
:1021D000A042D8BF4FF0FF3458DD9DED060B51EC07
:1021E000100BFFF7A2FF042808BF00F0BDF99DED1A
:1021F000060BBDEC068B02B070BD9DED060B51ECDD
:10220000100B00F0C1F9CDE9060181489FED828BEA
:10221000A0423CDD8248A0421FDD00249FED82AB3E
:102220009DED060B53EC1A2B51EC100B00F042FA0B
:102230009DED060B41EC190B53EC1A2B51EC100BD6
:1022400000F038FC53EC182B00F03EFD53EC192B3A
:1022500000F0D8FACDE9060149E09DED060B012416
:1022600053EC182B51EC100B00F024FA9DED060BEB
:1022700041EC190B53EC182B51EC100B00F024FD22
:1022800053EC192B00F0BEFACDE906012FE06848A7
:10229000A0421FDD02249FED689B9DED060B53ECD1
:1022A000192B51EC100B00F005FC53EC182B00F02F
:1022B00001FA9DED060B41EC180B53EC192B51EC78
:1022C000100B00F001FD53EC182B00F09BFACDE948
:1022D00006010CE09DED060B032453EC102B9FED43
:1022E000580B51EC100B00F08DFACDE906019DED75
:1022F000060B53EC102B51EC100B00F0DBFB41EC08
:10230000180B53EC182B00F0D5FB41EC190B4E4881
:102310000621B0EE490AF0EE690A784400F09CF814
:1023200053EC182B51EC100B00F0C4FB41EC180BD4
:102330004648B0EE490AF0EE690A0521784400F0FB
:102340008BF853EC192B51EC100B00F0B3FB41EC64
:10235000100B51EC180B53EC102B002C0EDA00F084
:10236000A9F99DED061B53EC112B00F0A3FB9DED8D
:10237000061B53EC112B00F09BFC35E000F09AF9A2
:102380009DED061B53EC112B00F094FB41EC100B60
:102390002F48784400EBC40090ED001B51EC100B6B
:1023A00053EC112B00F090FC9DED061B53EC112B10
:1023B00000F08AFC41EC100B2648784400EBC40086
:1023C00090ED001B51EC100B53EC112B00F070FC46
:1023D00041EC100B002DA2BFBDEC068B02B070BD0E
:1023E00051EC100B00F028F941EC100B01E7000054
:1023F000000010440000F07F182D4454FB21F93FE9
:10240000182D4454FB21F9BF0000DC3F0000203EA2
:102410000000F33F00000000000000000000F03F5B
:102420000000E63F00000000000000000000004047
:102430000080034000000000000000000000F83FA2
:10244000000000000000F0BF020D0000B80C00000A
:10245000420C0000FA0B000070B504462DED028B13
:102460004D1E00EBC500B0EE408AF0EE608A90EDA4
:10247000000B35F0060017D053EC182B51EC100B65
:1024800000F018FB41EC100B6D1E04EBC50090ED45
:10249000001B51EC100B53EC112B00F00BF941EC2D
:1024A000100B35F00600E7D1022D36D0042D1CD0DC
:1024B000062D1CBFBDEC028B70BD53EC182B51ECEC
:1024C000100B00F0F7FA94ED0A1B53EC112B00F0FF
:1024D000F1F853EC182B00F0EDFA94ED081B53ECD7
:1024E000112B00F0E7F841EC100B53EC182B51ECDA
:1024F000100B00F0DFFA94ED061B53EC112B00F0EB
:10250000D9F853EC182B00F0D5FA94ED040B53ECEA
:10251000102B00F0CFF841EC100B53EC182B51ECC2
:10252000100B00F0C7FA94ED021B53EC112B00F0D6
:10253000C1F853EC182B00F0BDFA94ED001B53ECDE
:10254000112B00F0B7F8BDEC028B41EC100B70BD05
:1025500010B553EC102B51EC100B00F0ABF841EC24
:10256000100B10BD000000009FED050B10B553ECE3
:10257000102B51EC100B00F09DFA41EC100B10BD2C
:10258000000000000000001082B0CDE9000121F041
:10259000004001909DED000B02B051EC100B704714
:1025A00008B5FEF71FFAFFF78BFAFFF7CBF91D48C6
:1025B0000024016841F4001101600068224600F423
:1025C0000010009021461020FEF76CFA1020FEF754
:1025D0005BFA1648144901604FF4E131C0E9011477
:1025E0000C21C460C0E904418461C461FEF788FF26
:1025F00008B172B6FEE7FFF7F9F9012211030C48A2
:10260000FEF7DCF90B494EF2DD3048630748002144
:102610004838FEF70FFF0549782244310348FEF79A
:10262000F1FFFEE730380240004400408C000020FB
:10263000000402400000014081F00041704780F03A
:102640000040704721F00041704720F00040704783
:1026500021F00042A2F16052B2F5801F01F0004368
:1026600028BFD2F17F6C0BD95FEA001C43EAC2029B
:1026700042EB507018BF704728BF20F00100704730
:10268000B2F5801FBCBF184670474FEA410C1CF5DD
:10269000001F02D2084600F077BC70B500F0B4FA13
:1026A00000000089FFF7F6BF4FF00040A0F5800062
:1026B0007047000010B591EA030F48BF83F0004354
:1026C00000F10A83841A71EB030C05D2121943EB53
:1026D0000C03001B61EB0C01DFF824E14FEA1154FD
:1026E000A4EB135C1EEA430F18BF9EEA445F73D04D
:1026F00023EA0E03DCF1200E21EA045143F4801397
:1027000032D322FA0CFE10EB0E0023FA0CFE41EB42
:102710000E01CCF1200E03FA0EFE10EB0E0051F16B
:102720000001B1F5801FCCF1200E32D201EB045133
:1027300012FA0EF2BDE8104058BF7047401C38BF77
:102740005FEA420218BF7047002814BF20F0010062
:1027500041F100014FEA410313F5001F38BF7047F4
:10276000A1F1C04100F09EBA012A43EB0302ACF193
:10277000200CDCF11F0E32BF4FF0000E23FA0CF3D9
:1027800010EB030041EB0451B4EB115FD0D0A1EB8F
:10279000045101F5801149085FEA300001EB045152
:1027A0000ED350F1000038BF12FA0EFE08D1BDE87A
:1027B0001040C9E7401C38BF5FEA4202CAD1C3E7F4
:1027C000BDE810404FEA410313F5001F38BF7047C2
:1027D000A1F1C04100F066BA9EEA445F08D011EA58
:1027E0005E0FBDE8104004BF01F0004100207047BB
:1027F000BDE8104070B500F007FA00BF64FBBE3EB4
:102800000000E0FF2DE9C04130B4DFF8A0C23CEA8F
:10281000111418BF3CEA131400F0EC8081EA0305A0
:102820001CEA111444EAD57418BF1CEA131500F011
:10283000C780A4EB05044FF0004545EAC12145EAF5
:10284000C32341EA505143EA525304F17F74994241
:1028500004F500344FEAC0204FEAC22208BF90427C
:1028600000F09C804FEA13650FF24016765D4FEA48
:10287000134506FB05F7C7F1807706FB07F74FEA1C
:10288000D737A7FB03687642C8F58038A7FB06CE8A
:1028900038BFA8F1010807FB08E64FF0000EA6FBC1
:1028A000028CE6FB03CEDCF1000CCEF1004E38BF0B
:1028B000AEF1010EA6FB0C584FF000074FF00005DB
:1028C000E6FB0E87A1FB08C6A0FB07CE16EB0E06A3
:1028D00045F10005E1FB076515F1E04E7EBFA4F56B
:1028E00080345FEA46066D4116F1800745F1000528
:1028F0004FEA17274FEA066647EA0567A6F1DE4664
:10290000B6F1805F4FEA15251FD9384624F0010C37
:1029100005EBC471BCF1FE6F01EB0C1102D8F0BCE9
:10292000BDE8008124425CBF01F5801E9EEAC47FA1
:1029300002D4F0BCBDE80081244238D4F0BCA1F13F
:10294000C041BDE8004100F0ADB94FEAD22242EAF1
:1029500043524FEAD323A7FB02864FEAD02040EA36
:10296000415007FB03661EEA0E0F4FEAD12105FB1B
:10297000026658BFA6EB0056B6EB00564FEA520E61
:102980004EEAC37E18EB0E0E56EB530EBDD518EB78
:1029900002085E417F1C55F10005B6E74FF4801533
:1029A0004FF000074FF000064FF00008ADE7F0BC15
:1029B0004FF0000001F1C04101F00041BDE800818D
:1029C00011EA0C1F0CEA131500D00CE013EA0C1FDF
:1029D00000F025804FF00000F0BC81EA030101F017
:1029E0000041BDE80081F0BCBDE8004181EA03017F
:1029F00000F058B9F0BCBDE8004170B500F004F932
:102A0000097EFC3E00F007B881EA03014FF00000A8
:102A100001F00041704781EA030100F043B9F0BCC6
:102A2000BDE800414FF0000021497047FFFDFBF970
:102A3000F7F5F4F2F0EEEDEBE9E8E6E4E3E1E0DEF1
:102A4000DDDBDAD8D7D5D4D3D1D0CFCDCCCBCAC863
:102A5000C7C6C5C4C2C1C0BFBEBDBCBBBAB9B8B78A
:102A6000B6B5B4B3B2B1B0AFAEADACABAAA9A8A87D
:102A7000A7A6A5A4A3A3A2A1A09F9F9E9D9C9C9B4B
:102A80009A999998979796959594939392919190F6
:102A90008F8F8E8E8D8C8C8B8B8A89898888878787
:102AA0008685858484838382828181800000FF07FC
:102AB0000000F87FDFF848C170B51CEA111E1EBF88
:102AC0001CEA13159EEA0C0F95EA0C0F00F06F80BC
:102AD00081EA030423EA4C134EEAD47E21EA4C1126
:102AE00041F4801143F48013AE44A1FB024CA0FBDF
:102AF0000365AEF17F7E361955EB0C05A1FB034C47
:102B00004CF10003A0FB021C16EB0C06654153F1CF
:102B10000003094218BF46F0010613F4007F0BD1F1
:102B20004FEA03314FEA0530340341EA155140EAD8
:102B300016506FF003020AE04FEAC3214FEAC520A6
:102B4000F40241EA555140EA56506FF0020202EB9E
:102B50002E4201EB025585EACE710AD05FEA440CA1
:102B600018BF24F0004450F1000041F1000120EAB8
:102B7000D47040F2FE7C624500D270BDA84214BF02
:102B80004FF080444FF04044002E08BF0024BEF1B7
:102B9000806FA8BFA1F1C041BDE8704080F2828083
:102BA0004FF0000001F1C04101F0004170479EEA82
:102BB0000C0F0CEA131518BF95EA0C0F06D04FF056
:102BC000000081EA030E0EF0004170BD00F01CF819
:102BD0008900013E00F007B800F009B84FEA430C45
:102BE0005FEA5C5C08D081EA030100F05BB84FEA61
:102BF000410C5FEA5C5CF6D14FF000000149704780
:102C00000000FF070000F87F0EF1020E2EF0030E09
:102C10005EF8046B364205D4012A43EB030515F533
:102C2000001F12D8012841EB010C1CF5001F0CD825
:102C30000ED14FEAD17C15F5001F0CEB4C0C0CF1BA
:102C4000020C08BF4CEBD37C04E04FF0080C01E011
:102C50004FEAD37C0CEB4C0526FA05F606F0070686
:102C6000B6F1040C06D20EEB860CBDE870404CF0B9
:102C7000010C6047DFE80CF0090B02024FF0004145
:102C80004FF00000A1F5002170BD19461046012843
:102C900051EB010418BFD4F5001484BF002001F0EB
:102CA000004170BD0808A0F500114FEA31017047DE
:102CB00091EA030F10B581F000413FF503AD83F0B9
:102CC000004300F009B8000010B591EA030F48BFB7
:102CD00083F000433FF5F6AC841A71EB030C07D286
:102CE00012198CF0004C43EB0C03001B61EB0C0140
:102CF000DFF8A4E14FEA1154A4EB135C1EEA430F82
:102D000018BF9EEA445F00F0B08023EA6E0352428F
:102D100021EA0451C3EB6E0338BF5B1EDCF1200EC9
:102D200025D322FA0CFE10EB0E0043FA0CFE41EB09
:102D30000E01CCF1200E03FA0EFE10EB0E0051F145
:102D40000001CCF1200E29D412FA0EF201EB04514D
:102D5000BDE8104058BF7047401C1CBFB2F1004F87
:102D6000704700280CBF491C20F00100704712EB8F
:102D7000020E43EB030218BF4FF0010E4EEA42026F
:102D8000ACF1200CDCF11E0E54D943FA0CFE10EB12
:102D90000E0051F1FF31CCF11E0ED5D50EF1010E12
:102DA00012FA0EFE404141EB010101EB445C5FEA87
:102DB0005C5C10D910EBDE7001EB045138BFBEF142
:102DC000004FBDE8104018BF704700280CBF491CD9
:102DD00020F00100704730D24FEAD42C11F50011D9
:102DE00024F400641BD0B1FA81F20B3AA41AA41E99
:102DF000D2F12003914030FA03F31943904001EBE4
:102E0000CC71002C01EB0451BDE81040A8BF704705
:102E100001F1C0414FF0000001F000417047B0FAED
:102E200080F310FA03F100D110BDE41A173C4805F5
:102E3000C90AE4E701EB045110BD491001EB04514C
:102E4000BDE810404FEA300002E04FF0000170474B
:102E50004A0008BF0042F8D0B2F5001F28BF7047F3
:102E600001F000414FF0000070479EEA445F07D038
:102E700011EA5E0FBDE8104004BF0021002070473A
:102E8000BDE8104070B5FFF7BFFE00BF40DFF63E63
:102E900083F00041104670470000E0FF43004FEA16
:102EA000D30C4FEA3C0C43401FBF40070CF160516C
:102EB00013F0FE4F70471CF0006F03D100200CF0A0
:102EC000004170470CF0004343EA507010B540EAEF
:102ED000CC0000F00EF800BF000000924FEA0001A5
:102EE000FFF7E0BE4FF000414FF00000A1F50021D8
:102EF00070470EF1020E2EF0030E5EF8044B2442D2
:102F000004D44FEA4102B2F17F4F11D84FEA400397
:102F1000B3F17F4F0CD80ED14FEAD07CB2F17F4F86
:102F20000CEB4C0C0CF1020C08BF4CEBD17C04E018
:102F30004FF0080C01E04FEAD17C0CEB4C0324FA73
:102F400003F404F00704B4F1040C06D20EEB840C75
:102F5000BDE810404CF0010C6047DFE80CF00708BA
:102F600002024FF00040A0F5800010BD084642006C
:102F700018BFD2F1807288BF00F0004010BD4FF042
:102F80004070E1EE100A7047FF2141EAD050C005C1
:102F90007047000610160006101600000000000022
:102FA00000000102030406070809000000000102F6
:102FB00003040000000000004FBB610567ACDD3F6B
:102FC000182D4454FB21E93F9BF681D20B73EF3F50
:102FD000182D4454FB21F93FE2652F227F2B7A3CC8
:102FE000075C143326A6813CBDCBF07A8807703C81
:102FF000075C143326A6913CC4EB98999999C9BFF4
:10300000711623FEC671BCBF6D9A74AFF2B0B3BF28
:103010009AFDDE522DDEADBF2F6C6A2C44B4A2BFE8
:103020000D5555555555D53FFF8300922449C23F54
:103030006E204CC5CD45B73F513DD0A0660DB13F88
:10304000EB0D76244B7BA93F11DA22E33AAD903F9A
:10305000703000080000002044000000C401000897
:10306000B430000844000020BC140000E001000857
:103070000000000000000000000000000000000050
:103080000000000000000000000000000000000040
:103090000000000000000000000000000000000030
:1030A000000000000100000010000000000000000F
:0430B0000024F40004
:040000050800018965
:00000001FF
