:020000040800F2
:10000000C81A002029020008CB220008F51E0008AB
:10001000C92200081F0400083D2900080000000054
:10002000000000000000000000000000CF220008D7
:10003000D104000800000000CD220008D1220008F1
:10004000430200084302000843020008430200087C
:10005000430200084302000843020008430200086C
:10006000430200084302000843020008430200085C
:10007000430200084302000843020008430200084C
:10008000210400084302000843020008430200085C
:10009000430200084302000843020008430200082C
:1000A000430200084302000843020008430200081C
:1000B000430200084302000843020008430200080C
:1000C00043020008430200084302000843020008FC
:1000D00043020008430200084302000843020008EC
:1000E00043020008430200084302000843020008DC
:1000F00043020008430200084302000843020008CC
:1001000043020008430200084302000843020008BB
:1001100043020008430200084302000843020008AB
:10012000430200084302000843020008430200089B
:10013000430200084302000843020008430200088B
:10014000430200084302000843020008430200087B
:10015000430200084302000843020008430200086B
:10016000430200084302000843020008430200085B
:100170004302000843020008430200080000000098
:10018000430200084302000800F002F800F03CF8C7
:100190000AA090E8000C82448344AAF10107DA45E2
:1001A00001D100F031F8AFF2090EBAE80F0013F0F8
:1001B000010F18BFFB1A43F0010318470438000071
:1001C00024380000103A24BF78C878C1FAD8520702
:1001D00024BF30C830C144BF04680C6070470000C1
:1001E0000023002400250026103A28BF78C1FBD840
:1001F000520728BF30C148BF0B6070471FB503F0DE
:1002000078FB1FBD10B510BD00F0CFF81146FFF709
:10021000F5FF02F053FE00F0EDF803B4FFF7F2FF34
:1002200003BC00F0F5F80000094880470948004782
:10023000FEE7FEE7FEE7FEE7FEE7FEE7FEE7FEE796
:10024000FEE7FEE704480549054A064B70470000F3
:100250006923000889010008C8140020C81A00207A
:10026000C8160020C816002053EA020C00F069806E
:100270002DE9F04B4FF00006002B1FBFB3FA83F5BA
:1002800003FA05F424FA05F65E4012BF1643B2FAEB
:1002900082F502FA05F4C5F120051EBF22FA05FC1D
:1002A00044EA0C04203556EA044C4FEA144418BFC3
:1002B000641C4FF000084FF00009904271EB030CF2
:1002C00039D3002919BFB1FA81F701FA07F6B0FA5C
:1002D00080F700FA07F6C7F120071EBF20FA07FCD7
:1002E00046EA0C062037B6FBF4FCA7EB0507103FE7
:1002F00007F01F0BCBF120060CFA0BFB2CFA06F6CD
:1003000044BFB3460026202FA4BF5E464FF0000B2B
:100310005BEA060C08BF4FF0010B19EB0B09ABFBB6
:10032000027C48EB0608C01B06FB02CC0BFB03CC8F
:1003300071EB0C01C1E70B46024641464846BDE859
:10034000F08B13B54FF000004FF00001AFF30080C9
:10035000BDE81C4070474FF0000200B513469446BC
:100360009646203922BFA0E80C50A0E80C50B1F10D
:100370002001BFF4F7AF090728BFA0E80C5048BF21
:100380000CC05DF804EB890028BF40F8042B08BFBF
:10039000704748BF20F8022B11F0804F18BF00F8BB
:1003A000012B7047704770477047754600F02CF876
:1003B000AE4605006946534620F00700854618B052
:1003C00020B5FFF73FFFBDE820404FF000064FF09B
:1003D00000074FF000084FF0000B21F00701AC467A
:1003E000ACE8C009ACE8C009ACE8C009ACE8C00999
:1003F0008D46704710B50446AFF300802046BDE837
:100400001040FFF70ABF0000004870476814002042
:1004100001491820ABBEFEE7260002007047FEE748
:10042000014800F059B800000814002001681823A2
:10043000CAB2103AB2FBF3F2054B6FF30901032A7B
:100440009B5CC36500D9091D8165084670470000A3
:100450000639000810B5014600208B698A6A4FF002
:10046000C07453B1B3F5005F15D072B1012A0CD03E
:10047000022A0AD0032A09D104E01AB1012A06D0BF
:10048000022A03D1C96AC90100D5012010BDC96A79
:10049000A142FAD010BD002AF7D0012AF2D0022AD8
:1004A000F3D0032AF3D010BD30B50468256825F4D5
:1004B00080252560046863608368402B036803D04F
:1004C00099600068C26030BD9A600068C16030BD4C
:1004D000704772B6FEE700002DE9F84304464FF07E
:1004E0000009CDF8009063484FF41651A56D0068DF
:1004F000B0FBF1F72E6894F85C10082000FA01F1C7
:1005000031420FD021680A6852070BD50A6822F0E1
:1005100004020A6094F85C108840A860606D40F0A6
:100520000100606594F85C104FF0010808FA01F0D2
:10053000304208D021684969090604D5A860606D79
:1005400040F00200606594F85C100420884030425E
:1005500008D021680968890704D5A860606D40F05B
:100560000400606594F85C1010208840304218D078
:1005700021680968090714D5A86020680168490343
:1005800004D50068000308D5A16C07E00168C9051F
:1005900003D4016821F008010160216C09B12046F3
:1005A000884794F85C1020208840304231D0216880
:1005B0000968C9062DD5A86094F83500052820687B
:1005C000016806D0490347D5006800031DD4616C5B
:1005D0001CE021F0160101602068416921F08001D2
:1005E0004161206C08B9A06C20B12068016821F03D
:1005F0000801016094F85C103F208840A86084F8EE
:10060000358084F83490216D1FE0E16B09B12046FC
:100610008847606D00282BD0606DC00714D005207E
:1006200084F835002068016821F00101016000981C
:10063000401C0090B84203D820680068C007F6D17B
:1006400084F8358084F83490E16C002910D001B032
:100650002046BDE8F04308470168C905D5D40168C4
:1006600021F01001016084F8358084F83490CCE7E3
:10067000BDE8F883480000202DE9F041044600F071
:10068000B5F906465CB1022084F83500002584F8EF
:1006900034502068016821F0010101600DE0012063
:1006A000BDE8F08100F0A2F9801B052805D92020C3
:1006B0006065032084F83500F2E720680068C00711
:1006C000F0D12268116820480140D4E901031843A1
:1006D000D4E903363343184363691843A3691843C5
:1006E000E3691843236A18430843616A042903D164
:1006F000D4E90B1319430843106020684069666A07
:1007000020F0070130460E43012704280CD1A06ACF
:100710000643E06A40B12046FFF79CFE20B140202E
:10072000606584F83570BAE7206846612046FFF7B7
:100730007DFE94F85C203F2191408160656584F8DE
:1007400035700020ACE700003F8010F02DE9F0414B
:100750000446866D90F83400002501280DD0012054
:1007600084F8340094F835700020012F07D084F805
:10077000340002252846BDE8F0810220FBE702276D
:1007800084F8357060652046FFF78EFE94F85C10A3
:100790003F208840B0602068016841F01601016088
:1007A000206C20B12068016841F0080101602068D8
:1007B000016841F001010160DCE7000070B504460A
:1007C00000F014F90546601C02D004480078044487
:1007D00000F00CF9401BA042FAD370BD3C00002091
:1007E0002DE9F84FDFF8BCA10022012503264FF0C8
:1007F0000F090AF1040BAAF1040E00BF0B6805FAF9
:1008000002F42340A34270D10F7907F00307012FB0
:1008100001D0022F16D187684FEA420806FA08FC79
:1008200027EA0C07D1F80CC00CFA08FC4CEA070CBC
:10083000C0F808C04768A7430C79C4F3001494407B
:100840003C4344600C79E443A4070AD0C4684FEAEF
:10085000420C06FA0CF7BC438F6807FA0CF72743E3
:10086000C7600C7904F00304022C12D1D40800EB09
:10087000840CDCF820405707FF0E09FA07F824EA39
:100880000804D1F8108008FA07F848EA0408CCF800
:10089000208004684FEA420C06FA0CF7BC430F793B
:1008A00007F0030707FA0CF7274307604C6814F4B6
:1008B000403F70D03C4C276847F48047276024684D
:1008C00022F0030704F480440094384C07EB040C36
:1008D000DCF8084897074FEA177809FA08F7BC438D
:1008E000334FB84202D1002724E054E0314FB842E0
:1008F00001D101271EE0304FB84201D1022719E093
:100900002E4FB84201D1032714E02D4FB84201D138
:1009100004270FE02B4FB84201D105270AE02A4FE8
:10092000B84201D1062705E0284FB84201D1072778
:1009300000E0082707FA08F72743CCF80878DAF828
:1009400000405746D1F804C09C435FEACC2C00D548
:100950001C433C60DBF800405F46D1F804C09C4378
:100960005FEA8C2C00D51C433C60DEF800407746E3
:10097000D1F804C09C435FEA8C3C00D51C433C602A
:10098000084F083F3C68D1F804C09C435FEACC3C68
:1009900000D51C433C60521C102AFFF42FAFBDE869
:1009A000F88F0000083C014044380240003001400C
:1009B000000002400004024000080240000C024017
:1009C000001002400014024000180240001C0240C7
:1009D000426921EA02030A4043EA02418161704709
:1009E0000AB1816170470904FBE700000148806893
:1009F000704700003C00002070B5040025D094F83A
:100A00003D00002520B984F83C50204600F004FA4F
:100A1000242084F83D002068016821F00101016074
:100A20002068016841F4004101602068016821F4F8
:100A30000041016000F058FB4D4A6168914201D8C5
:100A40004C4900E04C49884201D2012070BD4B491D
:100A50002368B0FBF1F15E6826F03F060E435E604E
:100A60006368934206D94FF4967359434FF47A73EF
:100A7000B1FBF3F12368491C1E6A26F03F0631439F
:100A800019626168914210D84900401EB0FBF1F232
:100A9000521CC2F30B02042A01D2042022E0B0FB54
:100AA000F1F0401CC0F30B001CE0A268F2B301EBB4
:100AB000C10303EB0116431EB3FBF6F35B1C43F4C7
:100AC00080431B0549D092B301EBC10202EB011137
:100AD000401EB0FBF1F0401CC0F30B0040F480401E
:100AE00040F400402168CA694CF6FF739A431043F2
:100AF000C861D4E9071001432068026822F0C002EF
:100B000011430160D4E9030101432068826848F27F
:100B1000FF339A4311438160D4E9050108432168FA
:100B2000CA6822F0FF021043C86001E00EE016E040
:100B30002068016841F0010101602564202084F8EB
:100B40003D00256384F83E50002070BD01EB410656
:100B5000431EB3FBF6F35B1CB3E70120C2E701EBD6
:100B60004101401EB0FBF1F0401CC0F30B00B7E7A1
:100B7000A086010080841E0000093D0040420F0055
:100B80002DE9FF4F81B089460446FFF72FFF054648
:100B900094F83D004FF0000820287DD11923012250
:100BA00050492046009501F031FA002874D194F89C
:100BB0003C00012870D0012084F83C0020680168C6
:100BC000C90703D1016841F0010101602068016893
:100BD00021F400610160242084F83D000026266491
:100BE0004148E0624FF0011B20272068016841F472
:100BF000807101600095002259462046049B01F057
:100C000005FA50B120680068C00502D54FF40070A5
:100C10002064032005B0BDE8F08F216809F0FE00D4
:100C20000861FFF7E3FE2168054648694969C0F39A
:100C30004000C1F380214FF0A00A0FE0FFF7D6FE7D
:100C4000411B0498814200D808B984F83DA021686E
:100C500048694969C0F34000C1F3802194F83D2000
:100C6000A02A02D008B90029E8D084F83D70206895
:100C70004169C943890716D4016841F400710160D4
:100C80002068416980691923012216492046009590
:100C900001F0BCF9B8B900E021E084F83D7084F8B7
:100CA0003C600020B6E7016841F4007101602168F2
:100CB0006FF480604861192301220A49204600959B
:100CC00001F0A4F908B10120A4E7039808F1010894
:100CD00080458AD384F83D7084F83C60F3E70220B5
:100CE00098E70000020010000000FFFF2DE9F84F18
:100CF0001F4690468A460446DDF82890FFF776FEA8
:100D0000054694F83D0020287FD11923012240494F
:100D10002046009501F07AF9002876D194F83C003D
:100D2000012872D0012084F83C0020680168C907BE
:100D300003D1016841F0010101602068016821F4DC
:100D400000610160212084F83D00102084F83E00FD
:100D500000262664C4F824806785608D20852D4890
:100D6000E0622B464A465146204601F0DBF890B936
:100D7000206841698069009036E02A46494620464D
:100D800001F0C3F950B1206C042804D12068016837
:100D900041F4007101600120BDE8F88F606A2168AC
:100DA00000780861606A401C6062618D491E61853F
:100DB000218D491E89B2218522685369DB435B0777
:100DC0000BD451B100781061606A401C6062608D84
:100DD000401E6085208D401E20852A4649462046BB
:100DE00001F0EEF80028CED1208D0028C5D154F8AE
:100DF0003D0B016841F400710160202004F81E09D8
:100E0000E67766770020C7E7FFE70220C4E7000027
:100E1000020010000000FFFF10B586B00446142148
:100E20006846FFF798FA13492068884220D1124893
:100E3000016841F0020101600068694600F00200AB
:100E40000590C02000901220019001200290032004
:100E50000390042004900948FFF7C2FC06481030B4
:100E6000016841F400110160006800F40010059071
:100E700006B010BD0054004030380240000402406B
:100E80000248816802781144816070473C0000206C
:100E90000B4810B5016841F400710160016841F42C
:100EA00080610160016841F480710160032000F0FD
:100EB0006FF80F2000F006F800F024F8002010BDB5
:100EC000003C024070B50D4D04464FF47A7128780D
:100ED000B1FBF0F00A490968B1FBF0F000F00CFB3F
:100EE00048B9102C07D200222146501E00F030F8DD
:100EF00000206C6070BD012070BD00003C0000202F
:100F0000480000200A4808B5016841F480410160AA
:100F1000006800F4804000900548001F016841F01F
:100F200080510160006800F08050009008BD000012
:100F300044380240002809DB00F01F0201219140E3
:100F40004009800000F1E020C0F800117047000067
:100F5000F0B40E4B1B680C46C3F30223C3F1070524
:100F6000042D00D90425191D072901D2002300E012
:100F7000DB1E012606FA05F1491E214099409E40DC
:100F8000761E16403143F0BC01F0F1BC0CED00E0E0
:100F9000064900F0070208684FF6FF03184040EAD0
:100FA0000220034A10430860704700000CED00E087
:100FB0000000FA052DE9F0470E46050065D0DFF880
:100FC0001481D8F80000F7B200F00700B04207D251
:100FD00088F80070D8F8000000F00700B04254D143
:100FE00028683D4C810712D5400703D5206840F49E
:100FF000E05020602878000703D5206840F4604066
:1010000020602068A96820F0F0000843206028785C
:10101000C0072DD0304968680839012812D002284D
:1010200013D0032811D00968890700292DDA216817
:1010300021F0030101432160FFF7D8FC814641F212
:10104000883A0EE009688903EFE709688901ECE74F
:10105000FFF7CCFCA0EB0901514502D90320BDE804
:10106000F0872068696800F00C00B0EB810FEFD1C9
:10107000D8F80010404601F00701B14207D90770C7
:10108000006800F00700B04201D00120E7E72878AF
:10109000400705D52068E96820F4E0500843206047
:1010A0002878000706D52068296920F4604040EAC6
:1010B000C100206000F038F82168084AC1F303112C
:1010C000515CC8400649086006480068FFF7FAFE10
:1010D0000020C4E7003C0240083802400E390008F6
:1010E00048000020400000200448054900680968C5
:1010F000044AC1F38221515CC84070474800002077
:10110000083802401E39000804480549006809688B
:10111000044AC1F34231515CC84070474800002086
:10112000083802401E390008154810B5006810F054
:101130000C02144813D01449042A0FD0082A0ED1E7
:101140000F4C241F2268236802F03F025B0207D580
:101150002068C0F38810A0FB010106E0084610BD1E
:101160002168C1F38811A1FB00010023FFF77CF87F
:101170002168C1F30141491C4900B0FBF1F010BDE9
:10118000083802400024F40040787D012DE9F84F32
:1011900004006ED02078DFF84C93C007A9F1040555
:1011A0004AD009F104000168C1F38101012908D086
:1011B0000068C0F3810002280AD1D9F8000040027B
:1011C00006D52868800337D560680028E1D033E071
:1011D0006068B0F5803F10D0B0F5A02F286810D01F
:1011E00020F480302860286820F48020286060681F
:1011F000A8B1FFF7FBFB06460DE0286840F48030FD
:10120000F4E740F480202860F7E700BFFFF7EEFB2B
:10121000801B642873D828688003F7D50CE0FFF79B
:10122000E5FB064605E000BFFFF7E0FB801B6428F6
:10123000F0D828688003F7D42078DFF8AC828007E4
:101240004FF0000A3ED5A748001D016811F00C0FB1
:1012500008D00068C0F3810002280BD1D9F8000043
:10126000400207D42868800716D5E068012800D11D
:1012700012E033E1E068B8B10120C8F80000FFF7E0
:10128000B5FB064605E000BFFFF7B0FB801B022858
:10129000C0D828688007F7D52868216920F0F800B1
:1012A00040EAC10028600DE0C8F800A0FFF79EFBEF
:1012B000064604E0FFF79AFB801B02281FD8286827
:1012C0008007F7D42078000722D5864F87486169C8
:1012D000703771B101210160FFF788FB064604E019
:1012E000FFF784FB801B022809D838688007F7D5F0
:1012F0000EE0C0F800A0FFF779FB064605E082E0AB
:10130000FFF774FB801B02287DD838688007F7D46C
:101310002078400768D5DFF8CCB100270BF13C0BF3
:10132000DBF80000C0000BD4DBF8001041F0805166
:10133000CBF80010DBF80000012700F0805000908F
:101340006B4E3068C00510D4306840F48070306057
:10135000FFF74CFB009005E0FFF748FB0099401AAF
:10136000022850D83068C005F6D55E4EA0686C36AD
:1013700001280FD00528306810D020F0010030601F
:10138000306820F004003060A068B8B1FFF72EFB91
:1013900000900FE0306840F00100F4E740F00400F6
:1013A0003060F7E7FFF722FB0099411A41F28830DD
:1013B000814266D830688007F4D50EE0FFF716FB4F
:1013C000009007E0FFF712FB0099411A41F28830C4
:1013D000814256D830688007F4D42FB1DBF8001072
:1013E00021F08051CBF80010A069C8B33D49091D18
:1013F0000968C1F3810102294AD00228504607D06A
:10140000C8F8600000E03CE0FFF7F0FA04463BE07B
:101410004746C8F86000FFF7E9FA064605E000BF56
:10142000FFF7E4FA801B02282BD828688001F7D444
:10143000D4E907010843A16A2E4A490802EB014199
:10144000626A41EA8211084394F82C1040EA016173
:10145000C9F8001001203866FFF7C8FA044606E014
:101460003EE000BFFFF7C2FA001B022809D8286837
:101470008001F7D534E000BFFFF7B8FA001B02285F
:1014800002D90320BDE8F88F28688001F4D427E052
:101490000128F7D0D9F80000E26900F480019142F8
:1014A0001CD1226A00F03F01914217D147F6C0716A
:1014B000626A0140B1EB821F10D1A26A4FF0FF3384
:1014C00000F4403103EB5202B1EB024F06D194F825
:1014D0002C1000F07060B0EB016F01D00120D1E75B
:1014E0000020CFE70438024000004742800E474208
:1014F000007000400000FFFF10B5401EB0F1807F7B
:1015000001D3012010BD4FF0E02460610F2160176E
:1015100001F02DFA0020A06107202061002010BDFD
:1015200010B590F83C20012A22D0012280F83C20FE
:10153000CA688C6822F4407222434C6822F48062AC
:1015400022430C6822F4006222430C6922F4805288
:1015500022434C6922F400522243C969002322F439
:1015600080420A4301684A6480F83C30002010BD84
:10157000022010BD70B590F83C20012A32D0012421
:1015800080F83C40022280F83D2003685A689D683C
:1015900022F070060A6832435A60134B02689A427E
:1015A00014D0B2F1804F11D0104B9A420ED0104B94
:1015B0009A420BD00F4B9A4208D00F4B9A4205D05B
:1015C0000E4B9A4202D00E4B9A4204D1496825F044
:1015D00080031943916080F83D40002180F83C1061
:1015E000084670BD022070BD0000014000040040AC
:1015F00000080040000C0040000401400040014091
:101600000018004010B5040003D094F83D0010B15C
:1016100007E0012010BD002084F83C00204600F0C7
:101620001FF8022084F83D00211D206800F0A4FE70
:10163000012084F8460084F83E0084F83F0084F8D6
:10164000400084F8410084F8420084F8430084F8A4
:10165000440084F8450084F83D00002010BD0000DF
:1016600008B500680649884208D10648016841F07B
:1016700001010160006800F00100009008BD000059
:10168000000001404438024070B5044690F83C0028
:101690000025012817D0012684F83C60022084F838
:1016A0003D002068826822F0770222F47F42826047
:1016B0000868502838D00DDC20284FD005DC90B3C6
:1016C000102811D14AE0022070BD302846D04028B1
:1016D0000AD13BE060282FD070280DD0B0F5805F94
:1016E00003D0B0F5005F12D0012584F83D600020E2
:1016F00084F83C00284670BDCB68D1E90121206800
:1017000000F0ABFE2068816841F0770109E0CB680A
:10171000D1E90121206800F0A0FE2068816841F431
:1017200080418160E1E719E0CA684968206800F0FB
:1017300069FF5021206806E0CA684968206800F007
:1017400072FF6021206800F092FECEE7CA68496807
:10175000206800F057FF40212068F4E72268014626
:101760001046F0E710B586B0044614216846FEF72F
:10177000F2FD0E492068884216D10D48002102680A
:1017800042F010020260006800F0100005904FF473
:10179000007000900220CDE901010120CDE9031085
:1017A00069460448FFF71CF806B010BD0000014070
:1017B000303802400010024070B5044690F83C00FA
:1017C00000260D4601280FD0012084F83C006AB1A4
:1017D000042A1DD0082A2FD00C2A3FD00126002031
:1017E00084F83C00304670BD022070BD206800F0D7
:1017F00047FE2068816941F00801816120688169A4
:1018000021F004018161206881692A69114311E096
:10181000206800F065FE2068816941F40061816103
:101820002068816921F480618161206881692A6969
:1018300041EA02218161D2E7206800F087FE20683A
:10184000C16941F00801C1612068C16921F004014A
:10185000C1612068C1692A69114311E0206800F064
:10186000A9FE2068C16941F40061C1612068C169B5
:1018700021F48061C1612068C1692A6941EA0221BD
:10188000C161ACE710B5040003D094F83D0010B17D
:1018900007E0012010BD002084F83C00204600F045
:1018A0001EF8022084F83D00211D206800F064FD30
:1018B000012084F8460084F83E0084F83F0084F854
:1018C000400084F8410084F8420084F8430084F822
:1018D000440084F8450084F83D00002010BD7047A6
:1018E00010B50446022249B104290ED0082913D0AC
:1018F00094F84100012816D0012010BD94F83E0054
:101900000128F9D184F83E200FE094F83F00012827
:10191000F2D184F83F2008E094F840000128EBD190
:1019200084F8402001E084F841200122206800F082
:1019300087FD16492068164A884201D0904203D19B
:10194000436C43F4004343642068884213D0B0F1F1
:10195000804F10D00F4988420DD00F4988420AD0DD
:101960000E49884207D0904205D00D49884202D0E6
:101970000C49884204D1816801F00701062903D08F
:10198000016841F001010160002010BD000001402C
:10199000000401400004004000080040000C00402A
:1019A00000400140001800407047704770B50400C7
:1019B00004D094F83D00002510B106E0012070BD70
:1019C00084F83C50204600F023F8242084F83D00A1
:1019D0002068C16821F40051C160204600F0DEFE9D
:1019E0002068016921F4904101612068416921F07A
:1019F0002A0141612068C16841F40051C160256439
:101A0000202084F83D0084F83E00002070BD0000D6
:101A1000F0B587B0064614216846FEF79CFC2F49B6
:101A2000DFF8B4C0376800252C48103902220323A0
:101A30000724674531D1076847F40037076000681D
:101A400000F400300590086840F001000860086864
:101A5000694600F0010005900C208DE82500CDE9D5
:101A600003341F48FEF7BCFE1F4C1E4820604FF099
:101A70000060C4E901054014C4E903506561A56133
:101A8000E561256220466562FEF7F6FD08B1FEF7C6
:101A900020FDB463A66307B0F0BD144EB742FAD17F
:101AA000066846F480260660006800F480200590F1
:101AB000086840F0020008600868694600F002000B
:101AC00005904FF440608DE82500CDE903340848C7
:101AD000FEF786FEDFE70000004400404038024089
:101AE00000000240886002400814002000480040C6
:101AF0000004024090F83E30202B0ED159B152B173
:101B000090F83C30012B08D0012380F83C300023B2
:101B1000036300F0C9BE0120704702207047000037
:101B20002DE9F04FDFF890A3E4494FF000082DEDC8
:101B30000C8B81B04FF4B47B9AF807209AF8089088
:101B40009AF802C09AF804609AF803509AF805408F
:101B50009AF80030F3B911F80800A5281AD101EB62
:101B6000080047785A2F15D1047983784279C578CF
:101B7000A40043EAC20344EA450423438AF806303A
:101B800002B1012290F8069090F807C0467A057AD3
:101B9000847A01235F4608F10108B845DADB8AF848
:101BA00007208AF808908AF802C08AF804608AF848
:101BB00003508AF805408AF800309AF809509AF8DC
:101BC0000AC09AF80140DAF81C600022012B22D1E9
:101BD00011F80280B8F1A50F1DD101EB020999F8A7
:101BE0000180B8F15A0F16D199F80280B8F1050FAB
:101BF00011D199F8045099F805404FEA054C99F82D
:101C0000035048EA04664CEA05252E437CB10125C1
:101C100099F806C00124521CBA42D7DBA648012C11
:101C20004572C66180F80AC0447002D039E10025CF
:101C3000EEE700268B46B5EE00CA9FEDA19B9FED17
:101C4000A2BBA3481BF8062059468255AA2A7CD17C
:101C500088194378552BFAD197490D310A70964A65
:101C60004B700B3281781170511CC5780D70C91CF6
:101C700002790A7042794A708A1C83791370C37999
:101C800053700B1D047A1C70407A58700888400805
:101C900000EE100A8848B8EE400ADFED8E0A4FF0D9
:101CA0000009CA4620EE208A4C4680ED098A118838
:101CB000490800EE101AB8EE400A60EE20AAC0ED06
:101CC0000AAAE6E0E0077CD1311901EB0B007A4962
:101CD000827A153190460A70C07A00904870088860
:101CE000153900EE100A7A487B4AB8EE400A5030A7
:101CF00000EB890009F1010960EE0C8AC1ED088A48
:101D0000C0ED008A18EE900A904278DB681E00EE63
:101D1000900A3AEEC80A601EF8EEE00AB0EE48AA51
:101D200080EE201A00EE100A18EE900AB8EEC00AF3
:101D300001EE00AA01F06CFD53EC192B01F074FBCD
:101D400041EC1D0B18EE900A00E0A6E001F060FDEA
:101D500053EC192B01F066FC53EC1B2B01F064FBD8
:101D600053EC1D2B01F008FA41EC100B00F010FEB3
:101D700051EC100B01F026F900EE100A009868F300
:101D8000070860F30F281FFA88F000EE900A4A480F
:101D90003AEE000AF8EE600A8069012820EE8C1AFB
:101DA00022D04549BDEEC00AD1ED0B0A10EE102A33
:101DB000FDEEE00A10EE900A904219D138EE810A49
:101DC00000E01CE0B6EE001A10EE900A20EE010AC8
:101DD000424A02EB8000BDEEC00AB8EEC00A80EDB8
:101DE000000A012088610AE03348002181614FE048
:101DF00010EE900A394901EB8000C0ED008AA5423F
:101E000046DD681E00EE100A3AEEC81A601EB8EEF3
:101E1000C00ADFF8A480C1EE000A00EE100AD8F86C
:101E200020000090B8EEC01AB0EE480A00EE810A19
:101E3000F0EE408A01F0ECFC53EC192B01F0F4FABF
:101E400041EC1D0B009801F0E3FC53EC192B01F061
:101E5000E9FB53EC1B2B01F0E7FA53EC1D2B01F0CF
:101E60008BF941EC100B00F093FD51EC100B01F0DD
:101E7000A9F800EE900A1A49C8ED0C0A38EEA00A3B
:101E800001EB8A000AF1010A88ED0B0A80ED000AD5
:101E9000641CB4EB450FFFF615AF761CBE42FFF68F
:101EA000D0AE01B03A46BDEC0C8BBDE8F04F034913
:101EB000A1F18800FFF71EBE08000020700100207D
:101EC0009A99999999696340CDCCCCCCCCCC3540CA
:101ED000D80200200000803CCDCCCC3D680E002014
:101EE000C80800204FF480510148FEF771BD000082
:101EF000000C0240FEE701684A69D24352050FD444
:101F00006FF480624A61002140F8301F2022427342
:101F10008173026942F0040202610173012070477B
:101F200000207047F8B50446C06A1E460D461746A5
:101F3000082807D0012805D010F5803F02D0206B7B
:101F4000122804D12068016841F4807101601346B1
:101F500000224FF001112046009600F057F840B1E2
:101F600020680068C00502D54FF40070206403208B
:101F7000F8BD2069B0F5804F0ED00620216800EA38
:101F8000D51040F0F000086133463A460B49204630
:101F900000F070F878B902E005F0FE0000E0E8B269
:101FA00021680861054933463A46891F204600F0FA
:101FB00061F80028DCD00120F8BD00000800010015
:101FC00070B516460D4604460DE02046FFF793FF18
:101FD00008B1012070BD681C05D0FEF707FD801B0D
:101FE000A84207D835B120684069C0434007ECD407
:101FF000002070BD002044F8300F20216173A073D1
:10200000216941F0200121612073E2E72DE9F047C9
:102010001E4690460D460446C1F30747DDF8209062
:1020200008E0701C06D0FEF7E1FCA0EB0900B0420E
:102030000FD876B12068012F18D0806925EA0000FA
:102040000004000C14D000214145EAD00020BDE876
:10205000F087002044F8300F20216173A0732169BC
:1020600041F02001216120730120F0E74069E5E79C
:102070000121E9E72DE9F0479A4691460E460446CC
:1020800000254FF02008C1F3074725E0206840698C
:10209000C043400514D42068016841F40071016018
:1020A00021686FF480604861256384F83D8084F87E
:1020B0003E50206C40F00400206484F83C501FE047
:1020C000B9F1FF3F08D0FEF791FCA0EB0A014945AA
:1020D0000CD8B9F1000F09D02068012F13D0806906
:1020E00026EA00000004000C0BD0CFE744F8305F74
:1020F00084F80D80A573206940F0200020612573CD
:102100000120BDE8F0874069EAE770B516460D4644
:1021100004460DE02046FFF7EEFE08B1012070BD39
:10212000681C05D0FEF762FC801BA84207D835B1B9
:1021300020684069C0430006ECD4002070BD002038
:1021400044F8300F20216173A073216941F0200110
:1021500021612073E2E700002DE9F04186B01421EF
:102160006846FEF7F8F823480024016841F00101B1
:102170000160016801F001010591016841F0100161
:102180000160016801F010010591016841F0020150
:102190000160016801F002010591016841F0080148
:1021A00001600068144F00F008004FF4805505905E
:1021B000002229463846FEF713FCDFF840804FF432
:1021C000C056002231464046FEF70AFC0095012524
:1021D000CDE90154694638460394FEF701FB0096A9
:1021E000CDE90154694640460394FEF7F9FA06B07A
:1021F000BDE8F0813038024000040240000C02408B
:1022000010B596B000240F94109411941294139466
:102210001C2108A81494FEF79EF820216846FEF7BA
:102220009AF8284826490160A721C0E901146321D2
:10223000C0E9031444618461FFF7E4F908B172B6A0
:10224000FEE74FF480500F900FA91E48FFF71CFACD
:1022500008B172B6FEE71B48FFF714FB08B172B66F
:10226000FEE7139413A917481494FFF783F908B1F4
:1022700072B6FEE76020CDE908040A940B940C9432
:102280000D94002208A90F480E94FFF795FA08B1A3
:1022900072B6FEE700944FF40050CDE9044002947A
:1022A00001940394694607480794FFF739F908B188
:1022B00072B6FEE70348FFF755FA16B010BD0000EE
:1022C00000000140A0000020FEE7FEE770477047D5
:1022D000FEF7D6BD30B593B030216846FEF73BF827
:1022E00014210CA8FEF737F81D480025016841F0BD
:1022F00080510160006800F0805011901948016819
:1023000041F4804101600068022400F48040119093
:102310000120039010200490009406940820CDE939
:102320000750A820CDE9090404200B906846FEF769
:102330002DFF08B172B6FEE70CA90F2081E831002D
:102340004FF4A0500F904FF48050109005210CA82E
:10235000FEF730FE002801D072B6FEE713B030BDA4
:1023600040380240007000400248016841F47001AA
:102370000160704788ED00E0F0B50268254C264DFD
:10238000264E274F274B4FF0804CA04209D0604586
:1023900007D0A84205D0B04203D0B84201D098423D
:1023A00004D122F0700E4A6842EA0E02A0421BD00D
:1023B000604519D0A84217D0B04215D0B84213D00A
:1023C000984211D0184DA8420ED0184DA8420BD0FB
:1023D000174DA84208D0174DA84205D0164DA84267
:1023E00002D0164DA84203D122F44075CA682A4390
:1023F0004D6922F080022A4302608A68C2620A683C
:102400008262A04201D0984201D109690163012191
:102410004161F0BD000001400004004000080040A0
:10242000000C004000040140004001400044014015
:102430000048014000180040001C004000200040FF
:1024400010B501F01F030121046A99408C43046216
:10245000016A9A401143016210BD10B5846842EAD6
:10246000032224F47F440A432243826010BD826821
:1024700022F070020A4342F00701816070470000B9
:10248000F0B5026A22F001020262036A42688469BE
:10249000124E24F073050C682C4323F002058B6860
:1024A0002B430D4DA84201D0B04205D123F00807BF
:1024B000CB683B4323F00403A84201D0B04205D1CE
:1024C0004D6922F4407215438A692A43426084614F
:1024D000496841630362F0BD00000140000401400F
:1024E000F0B5026A22F010020262026A436884694F
:1024F0000D6824F4E64444EA05248D6822F02002A5
:1025000042EA05120F4D104EA84201D0B04206D14A
:10251000CF6822F0800242EA071222F04002A8426D
:1025200001D0B04207D14D6923F4406343EA8503EB
:102530008D6943EA8503436084614968816302626F
:10254000F0BD00000000014000040140F0B5026A47
:1025500022F480720262026A4368C46922F4007243
:1025600024F073050C68124E2C438D6842EA052254
:102570000E4DA84201D0B04206D1CF6822F40062CD
:1025800042EA072222F48062A84201D0B04207D179
:102590004D6923F4405343EA05138D6943EA05135B
:1025A0004360C4614968C1630262F0BD000001403C
:1025B0000004014030B5026A22F480520262046ACB
:1025C0004268C3690D6823F4E64343EA05238D6836
:1025D00024F4005444EA0534084DA84202D0084DC2
:1025E000A84204D14D6922F4804242EA8512426039
:1025F000C36149680164046230BD0000000001400D
:102600000004014010B5036A046A24F00104046266
:10261000846924F0F00444EA021423F00A020A4315
:102620008461026210BD10B5036A23F010030362D7
:102630008369046A23F4704343EA023224F0A0035E
:1026400043EA01118261016210BD70B5846B20689C
:10265000406994F83D10C0F3C0100025212904D131
:1026600018B1E584204600F08AF82068406994F8A3
:102670003E10C0F38010222904D118B1E585204610
:1026800000F056F8206C40F0100020642046FFF760
:102690008CF970BD10B50146806B09680968C905E1
:1026A0002FD40021C18501680C3151E8002F22F49C
:1026B000807241E80023002BF5D10168143151E804
:1026C000002F22F0010241E80023002BF5D1016820
:1026D000143151E8002F22F0400241E80023002B82
:1026E000F5D1202180F83E10016B012909D1016844
:1026F0000C3151E8002F22F0100241E80023002B9A
:10270000F5D1016B012902D0FFF70AFA10BD818DC6
:10271000FFF74AF910BD10B5806B016B012902D09B
:10272000FFF7E0FB10BD818D4908FFF73DF910BDB3
:1027300001680C3151E8002F22F4907241E8002327
:10274000002BF5D10168143151E8002F22F001026D
:1027500041E80023002BF5D1016B012909D1016863
:102760000C3151E8002F22F0100241E80023002B29
:10277000F5D1202180F83E100021016370470168E7
:102780000C3151E8002F22F0C00241E80023002B59
:10279000F5D1202180F83D107047000070B5044647
:1027A00000680169E26821F4405111430161216927
:1027B000A068E26908436169114308432168CA6857
:1027C00049F20C639A430243CA6020684169A269D6
:1027D00021F440711143416131492068884202D09F
:1027E0003049884202D1FEF78FFC01E0FEF77CFC05
:1027F000E2690023192164253226B2F5004F626890
:1028000028D0A0FB0101930F9200FDF72DFD01469A
:10281000B0FBF5F06FF01802504301EB800006EBBF
:102820000010B0FBF5F000F0F002B1FBF5F002EBA8
:102830000012B1FBF5F06FF01803584301EB800074
:1028400006EB0010B0FBF5F000F00F00216810441B
:10285000886070BDA0FB010192185B41FDF704FD8B
:102860000146B0FBF5F00201B1FBF5F06FF0180383
:10287000584301EB800006EBC000B0FBF5F000F020
:10288000F80002EB4002B1FBF5F0584301EB800089
:1028900006EBC000B0FBF5F000F00700D6E7000043
:1028A000001001400014014038B581628285002586
:1028B000134604460564222084F83E00A26B1C489F
:1028C000D063A26B1B481064A26B1B48D064A06B42
:1028D0000A4605652168A06B091DFDF737FF2068D2
:1028E00001684068009084F83C50206948B1206835
:1028F0000C3050E8001F41F4807140E80012002ABB
:10290000F5D12068143050E8001F41F0010140E883
:102910000012002AF5D12068143050E8001F41F061
:10292000400140E80012002AF5D1002038BD000027
:1029300095260008172700084B260008FEE703B479
:1029400001984100009850EAC12018BF04204A0DA8
:1029500018BF40F0010040F2FF72B2EB515F08BFB8
:1029600040F00200012808BF052002B070470907A7
:10297000090E002804DB00F1E02080F80014704705
:1029800000F00F0000F1E02080F8141D70470000F7
:1029900070B59B482DED020B2DED068B079D25F0A4
:1029A0000044A04218DC9748844202DC0AD1069811
:1029B00040B19DED060BBDEC068B02B0BDE870404A
:1029C00000F0CEB9002DCCBF9FED8F0B9FED900B8B
:1029D000BDEC068B02B070BD8F48A04215DD8F485C
:1029E000A042D8BF4FF0FF3458DD9DED060B51ECEF
:1029F000100BFFF7A4FF042808BF00F0BDF99DED00
:102A0000060BBDEC068B02B070BD9DED060B51ECC4
:102A1000100B00F0C1F9CDE9060181489FED828BD2
:102A2000A0423CDD8248A0421FDD00249FED82AB26
:102A30009DED060B53EC1A2B51EC100B00F0F4FA41
:102A40009DED060B41EC190B53EC1A2B51EC100BBE
:102A500000F0EAFC53EC182B00F0F0FD53EC192BBE
:102A600000F08AFBCDE9060149E09DED060B01244B
:102A700053EC182B51EC100B00F0D6FA9DED060B21
:102A800041EC190B53EC182B51EC100B00F0D6FD58
:102A900053EC192B00F070FBCDE906012FE06848DC
:102AA000A0421FDD02249FED689B9DED060B53ECB9
:102AB000192B51EC100B00F0B7FC53EC182B00F065
:102AC000B3FA9DED060B41EC180B53EC192B51ECAE
:102AD000100B00F0B3FD53EC182B00F04DFBCDE9CB
:102AE00006010CE09DED060B032453EC102B9FED2B
:102AF000580B51EC100B00F03FFBCDE906019DEDAA
:102B0000060B53EC102B51EC100B00F08DFC41EC3C
:102B1000180B53EC182B00F087FC41EC190B4E48B6
:102B20000621B0EE490AF0EE690A784400F09CF8FC
:102B300053EC182B51EC100B00F076FC41EC180B09
:102B40004648B0EE490AF0EE690A0521784400F0E3
:102B50008BF853EC192B51EC100B00F065FC41EC99
:102B6000100B51EC180B53EC102B002C0EDA00F06C
:102B70005BFA9DED061B53EC112B00F055FC9DED0F
:102B8000061B53EC112B00F04DFD35E000F04CFA24
:102B90009DED061B53EC112B00F046FC41EC100B95
:102BA0002F48784400EBC40090ED001B51EC100B53
:102BB00053EC112B00F042FD9DED061B53EC112B45
:102BC00000F03CFD41EC100B2648784400EBC400BB
:102BD00090ED001B51EC100B53EC112B00F022FD7B
:102BE00041EC100B002DA2BFBDEC068B02B070BDF6
:102BF00051EC100B00F0DAF941EC100B01E700008A
:102C0000000010440000F07F182D4454FB21F93FD0
:102C1000182D4454FB21F9BF0000DC3F0000203E8A
:102C20000000F33F00000000000000000000F03F43
:102C30000000E63F0000000000000000000000402F
:102C40000080034000000000000000000000F83F8A
:102C5000000000000000F0BF620E0000180E00002F
:102C6000A20D00005A0D000070B504462DED028B38
:102C70004D1E00EBC500B0EE408AF0EE608A90ED8C
:102C8000000B35F0060017D053EC182B51EC100B4D
:102C900000F0CAFB41EC100B6D1E04EBC50090ED7B
:102CA000001B51EC100B53EC112B00F0BDF941EC63
:102CB000100B35F00600E7D1022D36D0042D1CD0C4
:102CC000062D1CBFBDEC028B70BD53EC182B51ECD4
:102CD000100B00F0A9FB94ED0A1B53EC112B00F034
:102CE000A3F953EC182B00F09FFB94ED081B53EC59
:102CF000112B00F099F941EC100B53EC182B51EC0F
:102D0000100B00F091FB94ED061B53EC112B00F01F
:102D10008BF953EC182B00F087FB94ED040B53EC6C
:102D2000102B00F081F941EC100B53EC182B51ECF7
:102D3000100B00F079FB94ED021B53EC112B00F00B
:102D400073F953EC182B00F06FFB94ED001B53EC60
:102D5000112B00F069F9BDEC028B41EC100B70BD3A
:102D600010B553EC102B51EC100B00F05DF941EC59
:102D7000100B10BD000000009FED050B10B553ECCB
:102D8000102B51EC100B00F04FFB41EC100B10BD61
:102D9000000000000000001082B0CDE9000121F029
:102DA000004001909DED000B02B051EC100B7047FC
:102DB00010B5012000F062F8BDE810400320FDF7D7
:102DC000FDBC000070B505463220FDF7F7FC2A4C2B
:102DD0002846052265604FF4FA752B464E21FDF713
:102DE000CFFE002845D02B4605227E216068FDF7E6
:102DF000C7FE08B1002070BD7E2020702D20FDF799
:102E0000DDFC302000F03AF80520FDF7D7FC30203B
:102E100000F034F80120FDF7D1FC302000F02EF84E
:102E20000820FDF7CBFC202000F028F80820FDF753
:102E3000C5FC282000F022F80120FDF7BFFC082087
:102E400000F01CF80120FDF7B9FC012000F016F895
:102E50000320FDF7B3FC062000F010F80120FDF779
:102E6000ADFC0C2000F00AF80320FDF7A7FC0120C0
:102E700070BD4E20C1E70000000000201CB501011C
:102E800000F0F00040F00C028DF8042040F0080043
:102E90008DF8050041F00C008DF8060041F00800A7
:102EA0008DF80700C82000900348042301AA017888
:102EB0004068FDF71BFF1CBD0000002008B5FDF7B2
:102EC000E7FFFFF707FAFFF747F9304800240168EA
:102ED00041F4001101600068224600F400100090E7
:102EE00021461020FEF734F81020FEF723F8294879
:102EF00027494FF4E1350160C0E901540C26C46054
:102F0000C0E904468461C461FEF750FD08B172B6A1
:102F1000FEE7FFF775F91F481F499C3801601F49FC
:102F2000C0E901144FF48041C0E903414461846168
:102F3000C4610462FDF760FD08B172B6FEE7154892
:102F4000174944300160C0E90154C460C0E9044637
:102F50008461C461FEF72AFD08B172B6FEE70D4830
:102F60009C38FFF72FFF08B1FFF722FF0E490D48ED
:102F70004863084800214838FEF7B2FC05494FF481
:102F8000B47288310348FEF7B5FDFEE730380240E1
:102F900000440040E800002000540040A0860100EA
:102FA000004800400B8B02000000014081F000410E
:102FB000704780F00040704721F00041704720F0DA
:102FC0000040704721F00042A2F16052B2F5801F2C
:102FD00001F0004328BFD2F17F6C0BD95FEA001CDF
:102FE00043EAC20242EB507018BF704728BF20F07E
:102FF00001007047B2F5801FBCBF184670474FEA0A
:10300000410C1CF5001F02D2084600F077BC70B5D9
:1030100000F0B4FA00000089FFF7F6BF4FF000405F
:10302000A0F580007047000010B591EA030F48BF7B
:1030300083F0004300F10A83841A71EB030C05D27C
:10304000121943EB0C03001B61EB0C01DFF824E1C8
:103050004FEA1154A4EB135C1EEA430F18BF9EEA1B
:10306000445F73D023EA0E03DCF1200E21EA045101
:1030700043F4801332D322FA0CFE10EB0E0023FA35
:103080000CFE41EB0E01CCF1200E03FA0EFE10EB0C
:103090000E0051F10001B1F5801FCCF1200E32D2AB
:1030A00001EB045112FA0EF2BDE8104058BF704710
:1030B000401C38BF5FEA420218BF7047002814BFA7
:1030C00020F0010041F100014FEA410313F5001F18
:1030D00038BF7047A1F1C04100F09EBA012A43EB0E
:1030E0000302ACF1200CDCF11F0E32BF4FF0000EDA
:1030F00023FA0CF310EB030041EB0451B4EB115F26
:10310000D0D0A1EB045101F5801149085FEA3000ED
:1031100001EB04510ED350F1000038BF12FA0EFE3D
:1031200008D1BDE81040C9E7401C38BF5FEA420241
:10313000CAD1C3E7BDE810404FEA410313F5001FB1
:1031400038BF7047A1F1C04100F066BA9EEA445F03
:1031500008D011EA5E0FBDE8104004BF01F0004145
:1031600000207047BDE8104070B500F007FA00BFBE
:1031700064FBBE3E0000E0FF2DE9C04130B4DFF843
:10318000A0C23CEA111418BF3CEA131400F0EC8012
:1031900081EA03051CEA111444EAD57418BF1CEA3D
:1031A000131500F0C780A4EB05044FF0004545EA75
:1031B000C12145EAC32341EA505143EA525304F185
:1031C0007F74994204F500344FEAC0204FEAC222CE
:1031D00008BF904200F09C804FEA13650FF2401642
:1031E000765D4FEA134506FB05F7C7F1807706FBCE
:1031F00007F74FEAD737A7FB03687642C8F5803850
:10320000A7FB06CE38BFA8F1010807FB08E64FF080
:10321000000EA6FB028CE6FB03CEDCF1000CCEF127
:10322000004E38BFAEF1010EA6FB0C584FF0000760
:103230004FF00005E6FB0E87A1FB08C6A0FB07CEFA
:1032400016EB0E0645F10005E1FB076515F1E04EB2
:103250007EBFA4F580345FEA46066D4116F1800713
:1032600045F100054FEA17274FEA066647EA05676A
:10327000A6F1DE46B6F1805F4FEA15251FD9384624
:1032800024F0010C05EBC471BCF1FE6F01EB0C11D5
:1032900002D8F0BCBDE8008124425CBF01F5801E6D
:1032A0009EEAC47F02D4F0BCBDE80081244238D439
:1032B000F0BCA1F1C041BDE8004100F0ADB94FEA5A
:1032C000D22242EA43524FEAD323A7FB02864FEAB7
:1032D000D02040EA415007FB03661EEA0E0F4FEA7A
:1032E000D12105FB026658BFA6EB0056B6EB00568F
:1032F0004FEA520E4EEAC37E18EB0E0E56EB530EFB
:10330000BDD518EB02085E417F1C55F10005B6E7FC
:103310004FF480154FF000074FF000064FF0000803
:10332000ADE7F0BC4FF0000001F1C04101F00041F9
:10333000BDE8008111EA0C1F0CEA131500D00CE067
:1033400013EA0C1F00F025804FF00000F0BC81EA6A
:10335000030101F00041BDE80081F0BCBDE800417F
:1033600081EA030100F058B9F0BCBDE8004170B536
:1033700000F004F9097EFC3E00F007B881EA030181
:103380004FF0000001F00041704781EA030100F0B6
:1033900043B9F0BCBDE800414FF00000214970473F
:1033A000FFFDFBF9F7F5F4F2F0EEEDEBE9E8E6E40A
:1033B000E3E1E0DEDDDBDAD8D7D5D4D3D1D0CFCD91
:1033C000CCCBCAC8C7C6C5C4C2C1C0BFBEBDBCBBCA
:1033D000BAB9B8B7B6B5B4B3B2B1B0AFAEADACABC5
:1033E000AAA9A8A8A7A6A5A4A3A3A2A1A09F9F9E9F
:1033F0009D9C9C9B9A999998979796959594939351
:10340000929191908F8F8E8E8D8C8C8B8B8A8989E7
:10341000888887878685858484838382828181806A
:103420000000FF070000F87FDFF848C170B51CEA14
:10343000111E1EBF1CEA13159EEA0C0F95EA0C0F15
:1034400000F06F8081EA030423EA4C134EEAD47E35
:1034500021EA4C1141F4801143F48013AE44A1FBE6
:10346000024CA0FB0365AEF17F7E361955EB0C05CF
:10347000A1FB034C4CF10003A0FB021C16EB0C0655
:10348000654153F10003094218BF46F0010613F4E9
:10349000007F0BD14FEA03314FEA0530340341EA94
:1034A000155140EA16506FF003020AE04FEAC321BB
:1034B0004FEAC520F40241EA555140EA56506FF0F8
:1034C000020202EB2E4201EB025585EACE710AD0D0
:1034D0005FEA440C18BF24F0004450F1000041F1B1
:1034E000000120EAD47040F2FE7C624500D270BD3B
:1034F000A84214BF4FF080444FF04044002E08BF54
:103500000024BEF1806FA8BFA1F1C041BDE87040AA
:1035100080F282804FF0000001F1C04101F00041D3
:1035200070479EEA0C0F0CEA131518BF95EA0C0FB2
:1035300006D04FF0000081EA030E0EF0004170BD8E
:1035400000F01CF88900013E00F007B800F009B84F
:103550004FEA430C5FEA5C5C08D081EA030100F0AB
:103560005BB84FEA410C5FEA5C5CF6D14FF00000BB
:10357000014970470000FF070000F87F0EF1020EBE
:103580002EF0030E5EF8046B364205D4012A43EB9D
:10359000030515F5001F12D8012841EB010C1CF59D
:1035A000001F0CD80ED14FEAD17C15F5001F0CEB93
:1035B0004C0C0CF1020C08BF4CEBD37C04E04FF038
:1035C000080C01E04FEAD37C0CEB4C0526FA05F61B
:1035D00006F00706B6F1040C06D20EEB860CBDE829
:1035E00070404CF0010C6047DFE80CF0090B020260
:1035F0004FF000414FF00000A1F5002170BD1946C9
:103600001046012851EB010418BFD4F5001484BF03
:10361000002001F0004170BD0808A0F500114FEA3C
:103620003101704791EA030F10B581F000413FF579
:1036300003AD83F0004300F009B8000010B591EA33
:10364000030F48BF83F000433FF5F6AC841A71EBDB
:10365000030C07D212198CF0004C43EB0C03001B37
:1036600061EB0C01DFF8A4E14FEA1154A4EB135C09
:103670001EEA430F18BF9EEA445F00F0B08023EAC1
:103680006E03524221EA0451C3EB6E0338BF5B1E46
:10369000DCF1200E25D322FA0CFE10EB0E0043FACB
:1036A0000CFE41EB0E01CCF1200E03FA0EFE10EBE6
:1036B0000E0051F10001CCF1200E29D412FA0EF2C5
:1036C00001EB0451BDE8104058BF7047401C1CBFBF
:1036D000B2F1004F704700280CBF491C20F00100D8
:1036E000704712EB020E43EB030218BF4FF0010EBE
:1036F0004EEA4202ACF1200CDCF11E0E54D943FA22
:103700000CFE10EB0E0051F1FF31CCF11E0ED5D5A1
:103710000EF1010E12FA0EFE404141EB010101EBE8
:10372000445C5FEA5C5C10D910EBDE7001EB045185
:1037300038BFBEF1004FBDE8104018BF70470028E9
:103740000CBF491C20F00100704730D24FEAD42C46
:1037500011F5001124F400641BD0B1FA81F20B3A88
:10376000A41AA41ED2F12003914030FA03F31943A6
:10377000904001EBCC71002C01EB0451BDE81040EE
:10378000A8BF704701F1C0414FF0000001F00041B7
:103790007047B0FA80F310FA03F100D110BDE41ABB
:1037A000173C4805C90AE4E701EB045110BD491074
:1037B00001EB0451BDE810404FEA300002E04FF049
:1037C000000170474A0008BF0042F8D0B2F5001F60
:1037D00028BF704701F000414FF0000070479EEA9B
:1037E000445F07D011EA5E0FBDE8104004BF00211E
:1037F00000207047BDE8104070B5FFF7BFFE00BF66
:1038000040DFF63E83F00041104670470000E0FFC5
:1038100043004FEAD30C4FEA3C0C43401FBF400724
:103820000CF1605113F0FE4F70471CF0006F03D194
:1038300000200CF0004170470CF0004343EA507048
:1038400010B540EACC0000F00EF800BF0000009276
:103850004FEA0001FFF7E0BE4FF000414FF00000DB
:10386000A1F5002170470EF1020E2EF0030E5EF856
:10387000044B244204D44FEA4102B2F17F4F11D8E5
:103880004FEA4003B3F17F4F0CD80ED14FEAD07C02
:10389000B2F17F4F0CEB4C0C0CF1020C08BF4CEB5F
:1038A000D17C04E04FF0080C01E04FEAD17C0CEB36
:1038B0004C0324FA03F404F00704B4F1040C06D218
:1038C0000EEB840CBDE810404CF0010C6047DFE8C3
:1038D0000CF0070802024FF00040A0F5800010BD78
:1038E0000846420018BFD2F1807288BF00F0004045
:1038F00010BD4FF04070E1EE100A7047FF2141EA21
:10390000D050C005704700061016000610160000C3
:10391000000000000000010203040607080900007F
:1039200000000102030400004FBB610567ACDD3FEE
:10393000182D4454FB21E93F9BF681D20B73EF3FD6
:10394000182D4454FB21F93FE2652F227F2B7A3C4E
:10395000075C143326A6813CBDCBF07A8807703C07
:10396000075C143326A6913CC4EB98999999C9BF7A
:10397000711623FEC671BCBF6D9A74AFF2B0B3BFAF
:103980009AFDDE522DDEADBF2F6C6A2C44B4A2BF6F
:103990000D5555555555D53FFF8300922449C23FDB
:1039A0006E204CC5CD45B73F513DD0A0660DB13F0F
:1039B000EB0D76244B7BA93F11DA22E33AAD903F21
:1039C000E0390008000000204C000000C40100089D
:1039D0002C3A00084C0000207C1A0000E00100088E
:1039E00000000000000000000000000000000000D7
:1039F00000000000000000000000000000000000C7
:103A000000000000000000000000000000000000B6
:103A100000000000000000000000000001000000A5
:0C3A200010000000000000000024F40072
:040000050800018965
:00000001FF
